:1000000012C02CC02BC02AC029C028C027C026C0BF
:10001000E6C224C023C082C321C020C01FC01EC0AE
:100020001DC01CC01BC011241FBECFE5D4E0DEBF25
:10003000CDBF11E0A0E6B0E0ECE7FBE002C0059028
:100040000D92AA30B107D9F712E0AAE0B1E001C0E1
:100050001D92A93AB107E1F7A0D08EC5D1CF08957E
:10006000E62FBA014E2F50E071D50895E62FBA0160
:100070004E2F50E05BD50895AF92BF92CF92DF92A2
:10008000EF92FF920F931F93CF93DF937C01EB01CD
:10009000C42E5901DD2411C06D2D70E08701060FBB
:1000A000171F6A0D7B1DC801AE0140D5F801808184
:1000B000D3948C1511F4D88203C08881D81660F3CC
:1000C000DF91CF911F910F91FF90EF90DF90CF9034
:1000D000BF90AF90089541B32091600081E090E01F
:1000E000BC0102C0660F771F2A95E2F7462B41BB81
:1000F00042B320916000BC0102C0660F771F2A95B1
:10010000E2F79B012095242322BB41B3209161009B
:10011000BC0102C0660F771F2A95E2F7462B41BB50
:1001200022B33091610002C0880F991F3A95E2F71F
:100130008095822382BB089521B3E82FF0E0E05A36
:10014000FF4F308181E090E002C0880F991F3A95FF
:10015000E2F7282B21BB089521B3E82FF0E0E05A05
:10016000FF4F308181E090E002C0880F991F3A95DF
:10017000E2F78095822381BB089521B3E82FF0E058
:10018000E05AFF4F308181E090E002C0880F991F54
:100190003A95E2F7282721BB08951F9360DF09D223
:1001A00074D282E690E06AE2AED2B2D0C8D089E7DB
:1001B00090E06AE2A8D21AE00BD08FE493EC0197AA
:1001C000F1F700C000001150B9F741D0BED0FDCF0B
:1001D0008AEF28E092B3922792BB94E69A95F1F7C2
:1001E0008150C1F7089580E090E06DE370E0869F54
:1001F000A001879F500D969F500D1124FA01E25BDC
:10020000FE4F14AE20E030E0F901EE0FFF1FE40FC7
:10021000F51FE25BFE4F118210822F5F3F4F2E31A0
:10022000310591F701968330910509F71092050287
:100230001092060210920702109208021092090210
:100240000895E5E0F2E0E80FF11D608308958091E4
:100250000702813029F41092070283E080934C0159
:1002600080914C01823049F1833028F4882341F099
:100270008130C1F509C0833029F1843099F52CC053
:1002800010924B0181E025C080914B0190918A0131
:10029000891711F483E01DC0E82FF0E0EE0FFF1F77
:1002A000E25BFE4F408151818F5F80934B0180E084
:1002B00060E070E04BD182E00CC080E058D181302A
:1002C00089F407C080E060E070E048EE53E03ED182
:1002D00084E080934C01089580E049D1813011F48D
:1002E00010924C010895CF93DF93EC01CC9661E01E
:1002F0004CE050E0BBDE86E990E0998388839B83E5
:100300008A839D838C8383E08CAFDF91CF910895A6
:100310008B9A69DF8EE491E0E6DF0895CF93DF9357
:10032000EC01CC9661E04CE050E09ADE6CAD660FDB
:10033000CE014DE050E094DEDF91CF91089533D2AD
:10034000D5D283E0A3D3A1D20895CF92DF92EF92CA
:10035000FF920F931F93DF93CF93CDB7DEB727970D
:100360000FB6F894DEBF0FBECDBFDE011196E7E8F1
:10037000F0E083E001900D928150E1F7DE011496E8
:10038000EBE8F0E083E001900D928150E1F780917D
:100390000A01813059F0813030F08230A9F1833088
:1003A00009F0BAC042C071D281E026C083E0DFD03C
:1003B000882309F4B1C08BE091E060E491D38823F5
:1003C000E9F000E005DF8FE493EC0197F1F700C05E
:1003D00000000F5F0A30B1F790910B0189819817E7
:1003E00069F490910C018A81981741F490910D0164
:1003F0008B81981719F482E080930A0183E060E012
:1004000070E042E350E00FC051D280EBBE016C5F60
:100410007F4F43E043D339D283E080930A0160E009
:1004200070E046E950E092D077C083E0A0D0882306
:1004300009F472C083E060E070E046E950E086D0E5
:100440008BE091E060E44CD3082F10E0011511051A
:1004500009F462C0DD2409C0F701E55FFE4F808129
:100460008F3311F480E007C0D394ED2CFF24E01605
:10047000F10694F3F7CF8F83ABDEAFE4B3EC1197C3
:10048000F1F700C000008F818F5F8A30A1F78FE9FC
:1004900096E8A1E081509040A040E1F700C0000044
:1004A0008AE0C82E95DEAFE4B3EC1197F1F700C0F7
:1004B0000000CA94B9F7E016F10674F5D394ED2D57
:1004C000F0E0E55FFE4F4081D3944093C70180E0A8
:1004D00090E00FC0ED2DF0E0E55FFE4F208130E0B1
:1004E000FC01EE0FFF1FE557FE4F31832083D394AD
:1004F0000196841778F381E0809307028BE891E0FE
:100500000DDFEEE4F1E0DF01DD968DE30D90019269
:100510008150E1F710920A0127960FB6F894DEBFDA
:100520000FBECDBFCF91DF911F910F91FF90EF9044
:10053000DF90CF9008958FEF9FEF9DBD8CBD85E03C
:100540008EBD89B7846089BF7894089590E0FC01DE
:10055000EE0FFF1FEE0FFF1FE80FF91FE65FFD4FC5
:10056000718360835383428381E08483089590E0A4
:10057000FC01EE0FFF1FEE0FFF1FE80FF91FE65FF4
:10058000FD4F848181FF05C084818D7F848381E05C
:10059000089580E0089590E0FC01EE0FFF1FEE0F3C
:1005A000FF1FE80FF91FE65FFD4F20813181C90170
:1005B000089580E090E0FC01EE0FFF1FEE0FFF1F9B
:1005C000E80FF91FE65FFD4F11821082138212823D
:1005D000148201968630910571F7ADDF08951F9260
:1005E0000F920FB60F9211242F933F934F935F9367
:1005F0006F937F938F939F93EF93FF9380E090E0AF
:10060000FC01EE0FFF1FEE0FFF1FE80FF91FE65F63
:10061000FD4F248120FF12C020813181428153810E
:10062000B9016F5F7F4F718360832417350730F006
:1006300024812E7F248324812260248301968630A6
:100640009105F1F689EF9FEF9DBD8CBD85E08EBDD4
:1006500089B7846089BFFF91EF919F918F917F91BE
:100660006F915F914F913F912F910F900FBE0F901F
:100670001F901895899A089588E98AB986E880BDFF
:1006800010BC85E089B978940895F4DFF5DF08950A
:10069000FC0105C05D9BFECF81918CB96150662342
:1006A000C9F70895DF93CF93CDB7DEB728970FB67C
:1006B000F894DEBF0FBECDBFFE01319667E021E0AA
:1006C00030E090E0A901062E02C0440F551F0A94A5
:1006D000E2F7482359231416150614F441E301C028
:1006E00040E34193662311F06150ECCFCE010196B7
:1006F00068E0CEDF28960FB6F894DEBF0FBECDBF00
:10070000CF91DF910895282F392FF90103C05D9B08
:10071000FECF8CB981918617D1F708951F920F9261
:100720000FB60F9211248F939F93EF93FF938BB18A
:100730009CB180914D01803851F080914D01E82F9E
:10074000F0E0E85DFD4F90838F5F80934D01FF9156
:10075000EF919F918F910F900FBE0F901F90189562
:1007600020914D012223E9F0F89467FD60E8209183
:100770004D01621710F060914D01462F0BC04150A2
:10078000242F30E0F901E85DFD4F5081280F391F1B
:10079000F9015083442399F710924D017894862FE4
:1007A000089580E0089518BA8EE387BB80E58DB97F
:1007B0001EB81EB808958FB9779BFECF8FB10895EC
:1007C000DF93CF930F92CDB7DEB7C2986983F3DF83
:1007D0008093A8026981862FEEDFC29A0F90CF9195
:1007E000DF910895C298E7DF8093A80280E0E3DFFD
:1007F000C29A0895EF92FF920F931F93DF93CF93C6
:100800000F92CDB7DEB7162F042FC2987983D3DFAE
:100810007981412F572F7A0105C080E0CCDFF701A5
:1008200081937F018E2D811B8017B8F3C29A0F90A0
:10083000CF91DF911F910F91FF90EF900895EF926C
:10084000FF920F931F93DF93CF930F92CDB7DEB735
:10085000162F042FC2987983AEDF8093A802798186
:10086000412F572F7A0104C0F70181917F01A3DF47
:100870008E2D811B8017C0F3C29A0F90CF91DF910C
:100880001F910F91FF90EF90089582EE60E098DF46
:1008900087E0A8DF682F87E293DFC19880E0A2DFBE
:1008A000682F616080E28CDFC19A089581EE60E07C
:1008B00087DFC19880E096DF682F6E7F80E280DF5F
:1008C000C19A08951F93182F87E08CDF87FF03C01C
:1008D000112319F005C0112319F080E563E570DFDD
:1008E0001F910895682F85E26BDF0895CF92DF9204
:1008F000EF92FF920F931F93DF93CF93CDB7DEB7A5
:100900002D970FB6F894DEBF0FBECDBF8FE493ECEA
:100910000197F1F700C0000080E0D4DF02ED10E0A5
:10092000F8018081806261814BDF0E5F1F4FF0E034
:100930000A3F1F07A9F734E3C32EC98223E4D22E4E
:10094000DA8290E1E92EEB82EC82FF24F394FD82BF
:100950008AE28E010F5F1F4FB80145E070DF89E327
:10096000898388E38A8387E38B8386E38C8382ECA5
:100970008D838BE2B80145E062DFC982DA82EB82C7
:10098000EC82FD8280E3B80145E059DF8DE12ADF8A
:10099000882319F480E563E713DF8DE367E010DF58
:1009A0008CE36FE30DDF81E08DDF0FE810E090E076
:1009B0007E010894E11CF11CF801219131914191D3
:1009C00051918F0129833A834B835C83892F806205
:1009D000B70144E09D8733DF9D859F5F993061F7C4
:1009E00083EBE82E80E0F82E8E010F5F1F4FF7019A
:1009F00021913191419151917F0159834A833B83E8
:100A00002C83892F8062B80144E09D8718DF9D8583
:100A10009F5F9E3061F7E7ECF0E0D80181918D9304
:100A200080E0E23DF807D1F78EE28E010F5F1F4FA5
:100A3000B8014BE004DF86E98A8382E88B838BE18F
:100A40008C838FED898384E2B80144E0F8DE8981EC
:100A5000897F898384E2B80144E0F1DEE3EDF0E3CD
:100A60003197F1F700C0000080E02CDF0EDF2D96FB
:100A70000FB6F894DEBF0FBECDBFCF91DF911F91AF
:100A80000F91FF90EF90DF90CF900895682F660F41
:100A9000696F677286E294DEF8DE0895EF92FF9246
:100AA0001F93DF93CF930F92CDB7DEB7182F7B0143
:100AB0004983FCDE87E196DE498185FD09C0812FEF
:100AC000B701BDDE87EA91E60197F1F700C00000AB
:100AD00080E00F90CF91DF911F91FF90EF900895EC
:100AE0000F931F93CF93DF93EC0187E07BDE082FFA
:100AF00086FF12C080E676DE182F813228F481E668
:100B0000BE01412F77DE03C082EE60E059DE87E14F
:100B100069DE80FFEFCF01C010E087E2602F50DE7A
:100B2000812FDF91CF911F910F910895DC01CB01AF
:100B3000FC01E199FECF06C0FFBBEEBBE09A319607
:100B40000DB20D9241505040B8F70895DC01CB0131
:100B500002C02D9105D041505040D8F70895262F5E
:100B6000E199FECF9FBB8EBB2DBB0FB6F894E29AE6
:0C0B7000E19A0FBE01960895F894FFCFA3
:100B7C0003040D0D205374617274696E67207072DA
:100B8C006F6772616D200D2A00207374617274207E
:100B9C006D61696E0D2A002A2A2A002B2B2B00402E
:100BAC004B01E2C04B0000D0FC8C0299003941D9BA
:100BBC0096821B24027FA6000000000000000000AB
:100BCC000000000000000000000000000000000019
:100BDC007312000080B446412008048120CFF7FE38
:100BEC00FFFF000F013F023F0303040005330627FC
:100BFC000707080009000CC30DC40EC50FC6112051
:100C0C001220132014201520162017001C3F1D073E
:0A0C1C00344310100139383736C296
:00000001FF
