:1000000012C02CC02BC02AC029C028C027C026C0BF
:100010009BC324C023C037C421C020C01FC01EC042
:100020001DC01CC01BC011241FBECFE5D4E0DEBF25
:10003000CDBF11E0A0E6B0E0E6EEFCE002C0059026
:100040000D92AE3FB107D9F713E0AEEFB1E001C0BA
:100050001D92AD39B107E1F7A0D043C6D1CF0895C5
:10006000E62FBA014E2F50E026D60895E62FBA01AA
:100070004E2F50E010D60895AF92BF92CF92DF92EC
:10008000EF92FF920F931F93CF93DF937C01EB01CD
:10009000C42E5901DD2411C06D2D70E08701060FBB
:1000A000171F6A0D7B1DC801AE01F5D5F8018081CF
:1000B000D3948C1511F4D88203C08881D81660F3CC
:1000C000DF91CF911F910F91FF90EF90DF90CF9034
:1000D000BF90AF90089541B32091600081E090E01F
:1000E000BC0102C0660F771F2A95E2F7462B41BB81
:1000F00042B320916000BC0102C0660F771F2A95B1
:10010000E2F79B012095242322BB41B3209161009B
:10011000BC0102C0660F771F2A95E2F7462B41BB50
:1001200022B33091610002C0880F991F3A95E2F71F
:100130008095822382BB089521B3E82FF0E0E05A36
:10014000FF4F308181E090E002C0880F991F3A95FF
:10015000E2F7282B21BB089521B3E82FF0E0E05A05
:10016000FF4F308181E090E002C0880F991F3A95DF
:10017000E2F78095822381BB089521B3E82FF0E058
:10018000E05AFF4F308181E090E002C0880F991F54
:100190003A95E2F7282721BB08951F9360DFBED26E
:1001A00029D382E690E06AE263D3CFD0EED089E72C
:1001B00090E06AE25DD31AE00BD08FE493EC0197F4
:1001C000F1F700C000001150B9F748D0E4D0FDCFDE
:1001D00084E628E092B3922792BBEDEEF2E03197ED
:1001E000F1F700C000008150A9F7089587E890E07A
:1001F0006AE23ED380E090E06DE370E0869FA0016C
:10020000879F500D969F500D1124FA01EE5BFD4F14
:1002100014AE20E030E0F901EE0FFF1FE40FF51FF0
:10022000EE5BFD4F118210822F5F3F4F2E31310563
:1002300091F701968330910509F71092F902109217
:10024000FA021092FB021092FC021092FD02089535
:10025000E9EFF2E0E80FF11D608308958091FB0261
:10026000813029F41092FB0283E080934002809158
:100270004002823069F1833028F4882341F08130D4
:10028000E1F509C0833049F18430B9F530C01092EE
:100290003F0281E029C080917E0290913F02981731
:1002A00019F496DF83E020C093DF80913F02E82FAE
:1002B000F0E0EE0FFF1FEE5BFD4F408151818F5F3D
:1002C00080933F0280E060E070E0F5D182E00CC0F6
:1002D00080E002D2813089F407C080E060E070E005
:1002E00048EE53E0E8D184E080934002089580E036
:1002F000F3D1813011F4109240020895CF93DF932F
:10030000EC0187E990E06AE2B3D2CE01CC9661E0DD
:100310004CE050E0ABDE6CAD6F3178F080EB90E0FC
:100320006AE2A6D282E390E0998388839B838A83E2
:100330009D838C8383E08CAF05C0660FCE014DE0BA
:1003400050E094DEDF91CF9108958B9A85EC90E098
:100350006AE28ED24BDF82E492E0D0DF0895CF9341
:10036000DF93EC018DED90E06AE282D2CE01CC9673
:1003700061E04CE050E074DE6CAD660FCE014DE004
:1003800050E06EDEDF91CF910895C2D264D383E056
:1003900032D430D30895BF92CF92DF92EF92FF9282
:1003A0000F931F93DF93CF93CDB7DEB727970FB689
:1003B000F894DEBF0FBECDBFDE011496EFE7F1E08B
:1003C00083E001900D928150E1F78091FE01813030
:1003D00091F0813038F0823009F497C0833009F011
:1003E0004FC1A8C085EF90E06AE242D203D381E01A
:1003F0008093FE0184C083E06FD1882309F440C15B
:100400008FEF91E060E421D4E82E082F10E0011571
:10041000110509F474C088E091E06AE229D28FEFF7
:1004200091E06E2DEAD188E191E061E0E6D180E0D3
:100430008F83CEDEAFE4B3EC1197F1F700C000007C
:100440008F818F5F8A30A1F720E009C081509E4FD5
:10045000FC019081822F8F5F9F3339F0282F822FEC
:1004600090E08017910794F309C1E82FF0E0E15084
:10047000FE4F1081082F0F5F812F805D89838AE1F5
:1004800091E06AE2F5D1CE01019661E0B6D188E152
:1004900091E061E0B2D11093BB0280E090E0DE0118
:1004A00012961AC0E02FF0E0E150FE4F20812C930D
:1004B000E02FEF5FF0E0E150FE4F208111962C938A
:1004C00011970E5F2A813B81FC01EE0FFF1FE1585F
:1004D000FD4F318320830196811720F381E08093C3
:1004E000FB028FE792E03BDFE2E4F2E0DF01DD9622
:1004F0008DE30D9001928150E1F71092FE0183E0AF
:1005000060E070E042E350E013C082E391E06AE211
:10051000AFD181D280EBBE016C5F7F4F43E073D3DC
:1005200069D283E08093FE0160E070E046E950E02C
:10053000C2D0A6C083E0D0D0882309F4A1C083E054
:1005400060E070E046E950E0B6D080E491E06AE215
:100550008FD18FEF91E060E478D3D82E082F10E090
:100560000115110509F48CC08CE491E06AE280D198
:100570008FEF91E06D2D41D188E191E061E03DD1B7
:10058000CC240AC0F701E150FE4F80818F3319F46B
:100590008AE0B82E07C0C394EC2CFF24E016F106C5
:1005A0008CF3F6CF15DE8FE493EC0197F1F700C0E2
:1005B0000000BA94B9F78FE996E8A1E08150904025
:1005C000A040E1F700C0000080E08F8301DEAFE4CF
:1005D000B3EC1197F1F700C000008F818F5F8A3074
:1005E000A1F7E016F1060CF04BC0EC2CE394EE2DD5
:1005F000F0E0E150FE4F0081E394802F805D89831D
:100600008AE191E06AE234D1CE01019661E0F5D051
:1006100088E191E061E0F1D00093BB0220E030E09E
:1006200010C0EE2DF0E0E150FE4F808190E0F90126
:10063000EE0FFF1FE158FD4F91838083E3942F5FFE
:100640003F4F201770F386E691E06AE211D18FEFF9
:1006500091E06D2DD2D088E191E061E0CED081E0D3
:100660008093FB028FE792E07ADEE2E4F2E0DF01C2
:10067000DD968DE30D9001928150E1F71092FE011D
:1006800027960FB6F894DEBF0FBECDBFCF91DF9196
:100690001F910F91FF90EF90DF90CF90BF90089542
:1006A0008FEF9FEF9DBD8CBD85E08EBD89B78460C7
:1006B00089BF7894089590E0FC01EE0FFF1FEE0FC4
:1006C000FF1FE80FF91FE250FD4F718360835383D2
:1006D000428381E08483089590E0FC01EE0FFF1FC8
:1006E000EE0FFF1FE80FF91FE250FD4F848181FFDD
:1006F00005C084818D7F848381E0089580E0089522
:1007000090E0FC01EE0FFF1FEE0FFF1FE80FF91F37
:10071000E250FD4F20813181C901089580E090E0D1
:10072000FC01EE0FFF1FEE0FFF1FE80FF91FE25055
:10073000FD4F11821082138212821482019686303C
:10074000910571F7ADDF08951F920F920FB60F92CA
:1007500011242F933F934F935F936F937F938F93C6
:100760009F93EF93FF9380E090E0FC01EE0FFF1F5B
:10077000EE0FFF1FE80FF91FE250FD4F248120FF0D
:1007800012C02081318142815381B9016F5F7F4F57
:10079000718360832417350730F024812E7F2483F2
:1007A000248122602483019686309105F1F686EF3C
:1007B0009FEF9DBD8CBD85E08EBD89B7846089BFEC
:1007C000FF91EF919F918F917F916F915F914F91E9
:1007D0003F912F910F900FBE0F901F901895899AFF
:1007E000089588E98AB986E880BD10BC81E389B99B
:1007F00078940895F4DFF5DF0895FC0105C05D9B52
:10080000FECF81918CB961506623C9F70895DF93BB
:10081000CF93CDB7DEB728970FB6F894DEBF0FBEE3
:10082000CDBFFE01319667E021E030E090E0A90104
:10083000062E02C0440F551F0A94E2F7482359239D
:100840001416150614F441E301C040E341936623F6
:1008500011F06150ECCFCE01019668E0CEDF289612
:100860000FB6F894DEBF0FBECDBFCF91DF910895D4
:10087000282F392FF90103C05D9BFECF8CB98191E0
:100880008617D1F708951F920F920FB60F92112479
:100890008F939F93EF93FF938BB19CB18091410213
:1008A000803851F080914102E82FF0E0E45EFC4F87
:1008B00090838F5F80934102FF91EF919F918F9181
:1008C0000F900FBE0F901F90189520914102222388
:1008D000E9F0F89467FD60E820914102621710F09A
:1008E00060914102462F0BC04150242F30E0F901A6
:1008F000E45EFC4F5081280F391FF90150834423D7
:1009000099F7109241027894862F089580E0089517
:1009100018BA8EE387BB80E58DB91EB81EB808955E
:100920008FB9779BFECF8FB10895DF93CF930F924E
:10093000CDB7DEB7C2986983F3DF80939C036981EA
:10094000862FEEDFC29A0F90CF91DF910895C29863
:10095000E7DF80939C0380E0E3DFC29A0895EF9283
:10096000FF920F931F93DF93CF930F92CDB7DEB714
:10097000162F042FC2987983D3DF7981412F572F07
:100980007A0105C080E0CCDFF70181937F018E2DD5
:10099000811B8017B8F3C29A0F90CF91DF911F91FE
:1009A0000F91FF90EF900895EF92FF920F931F9396
:1009B000DF93CF930F92CDB7DEB7162F042FC298D7
:1009C0007983AEDF80939C037981412F572F7A0181
:1009D00004C0F70181917F01A3DF8E2D811B801759
:1009E000C0F3C29A0F90CF91DF911F910F91FF90AA
:1009F000EF90089582EE60E098DF87E0A8DF682F2F
:100A000087E293DFC19880E0A2DF682F616080E217
:100A10008CDFC19A089581EE60E087DFC19880E0A5
:100A200096DF682F6E7F80E280DFC19A08951F9362
:100A3000182F87E08CDF87FF03C0112319F005C052
:100A4000112319F080E563E570DF1F910895682F89
:100A500085E26BDF0895CF92DF92EF92FF920F93C2
:100A60001F93DF93CF93CDB7DEB72D970FB6F894D2
:100A7000DEBF0FBECDBF8FE493EC0197F1F700C04E
:100A8000000080E0D4DF06EC11E0F8018081806294
:100A900061814BDF0E5F1F4FF1E00E3E1F07A9F78C
:100AA00034E3C32EC98223E4D22EDA8290E1E92E08
:100AB000EB82EC82FF24F394FD828AE28E010F5FC9
:100AC0001F4FB80145E070DF89E3898388E38A839B
:100AD00087E38B8386E38C8382EC8D838BE2B80182
:100AE00045E062DFC982DA82EB82EC82FD8280E33C
:100AF000B80145E059DF8DE12ADF882319F480E54C
:100B000063E713DF8DE367E010DF8CE36FE30DDF56
:100B100081E08DDF03E811E090E07E010894E11CA4
:100B2000F11CF80121913191419151918F0129835B
:100B30003A834B835C83892F8062B70144E09D87B1
:100B400033DF9D859F5F993061F787EAE82E81E06A
:100B5000F82E8E010F5F1F4FF701219131914191C6
:100B600051917F0159834A833B832C83892F806273
:100B7000B80144E09D8718DF9D859F5F9E3061F737
:100B8000EBEBF1E0D80181918D9381E0E63CF80731
:100B9000D1F78EE28E010F5F1F4FB8014BE004DFEB
:100BA00086E98A8382E88B838BE18C838FED89834E
:100BB00084E2B80144E0F8DE8981897F898384E298
:100BC000B80144E0F1DEE3EDF0E33197F1F700C066
:100BD000000080E02CDF0EDF2D960FB6F894DEBF0C
:100BE0000FBECDBFCF91DF911F910F91FF90EF907E
:100BF000DF90CF900895682F660F696F677286E265
:100C000094DEF8DE0895EF92FF921F93DF93CF9367
:100C10000F92CDB7DEB7182F7B014983FCDE87E149
:100C200096DE498185FD09C0812FB701BDDE87EAC7
:100C300091E60197F1F700C0000080E00F90CF919E
:100C4000DF911F91FF90EF9008950F931F93CF9323
:100C5000DF93EC0187E07BDE082F86FF12C080E681
:100C600076DE182F813228F481E6BE01412F77DE2F
:100C700003C082EE60E059DE87E169DE80FFEFCFDE
:100C800001C010E087E2602F50DE812FDF91CF910D
:100C90001F910F910895DC01CB01FC01E199FECF7A
:100CA00006C0FFBBEEBBE09A31960DB20D924150EB
:100CB0005040B8F70895DC01CB0102C02D9105D05A
:100CC00041505040D8F70895262FE199FECF9FBBA1
:100CD0008EBB2DBB0FB6F894E29AE19A0FBE019637
:060CE0000895F894FFCF17
:100CE60003040D0D205374617274696E672070726F
:100CF6006F6772616D200D2A002073746172742013
:100D06006D61696E0D2A0020696E69744756616CC3
:100D1600732829200D2A0020696E206E6F636B529E
:100D260065616446726F6D454550524F4D0D2A0000
:100D3600206E6F206E6F636B20696E206565707222
:100D46006F6D0D2A0020696E69744E6F636B4D617D
:100D56006368696E655F302829200D2A0020696E58
:100D6600206E6F636B5772697465546F45455052B8
:100D76004F4D0D2A0020494E4954574149544E457E
:100D860057434F44450D2A002067657420736F6DE5
:100D96006520646174612A000D002057414954435F
:100DA6004F4445206E6F636B20636F756E743A20F7
:100DB6002A0020414E53574552444F4F520D2A00A8
:100DC6002057414954434F44450D2A002057414975
:100DD60054434F44452067657420736F6D652064E6
:100DE6006174613A2A002057414954434F444520D3
:100DF60066696E69736820636F7079200D2A002B0F
:100E06002B2B00404B01E2C04B0000D0FC8C02991A
:100E1600003941D996821B24027FA60000000000FB
:100E260000000000000000000000000000000000BC
:100E3600000000007312000080B4464120080481BF
:100E460020CFF7FEFFFF000F013F023F0303040020
:100E5600053306270707080009000CC30DC40EC595
:100E66000FC611201220132014201520162017005B
:0E0E76001C3F1D07344310100139383736C2B7
:00000001FF
