:100000001AC034C033C032C031C030C02FC02EC07F
:10001000D5C32CC02BC071C429C028C04EC126C076
:1000200025C024C023C046C251C256C27CC2AFC242
:10003000A6C2B7C2C7C211241FBECFE5D4E0DEBF3F
:10004000CDBF11E0A0E6B0E0ECE1F0E102C0059028
:100050000D92AA3AB107D9F713E0AAEAB1E001C0BC
:100060001D92AC34B107E1F7D3D0D6C7C9CF44B3A2
:100070002091600082E090E0BC0102C0660F771F13
:100080002A95E2F79B012095242324BB45B32091B8
:100090006000BC0102C0660F771F2A95E2F7462B6D
:1000A00045BB44B320916100BC0102C0660F771FBD
:1000B0002A95E2F79B012095242324BB25B3309198
:1000C000610002C0880F991F3A95E2F7282B25BBE3
:1000D000089523B3E82FF0E0E05AFF4F808130E02D
:1000E00002C0359527958A95E2F781E020FD80E0F2
:1000F00008950895E62FBA014E2F50E077D708955E
:10010000E62FBA014E2F50E061D70895AF92BF920B
:10011000CF92DF92EF92FF920F931F93CF93DF93D3
:100120007C01EB01C42E5901DD2411C06D2D70E05E
:100130008701060F171F6A0D7B1DC801AE0146D748
:10014000F8018081D3948C1511F4D88203C0888182
:10015000D81660F3DF91CF911F910F91FF90EF9030
:10016000DF90CF90BF90AF90089580E090E021E0C5
:1001700030E061B3FC01EE59FF4F4081D90102C06C
:10018000AA0FBB1F4A95E2F76A2B61BB62B340819D
:10019000F90102C0EE0FFF1F4A95E2F7AF0140954B
:1001A000462342BB01968430910519F7089522B386
:1001B000E82FF0E0EE59FF4F308181E090E002C07F
:1001C000880F991F3A95E2F7282B22BB089522B396
:1001D000E82FF0E0EE59FF4F308181E090E002C05F
:1001E000880F991F3A95E2F78095822382BB089584
:1001F00022B3E82FF0E0EE59FF4F308181E090E02C
:1002000002C0880F991F3A95E2F7282722BB08956C
:10021000ACDF2DDF29D3BCD239D081E05ADF813069
:1002200031F486E690E06AE25DD3ACD3FECF84E899
:1002300090E06AE257D31BD18CE990E06AE252D396
:10024000FFD389EA90E06AE24DD3D1D126D11AD406
:10025000EFD1FBCF8091BB00883C18F082E0809307
:10026000BB008091BB008E5F8093BB008BEB90E066
:1002700061E04AE050E03EDF08958093BB008BEBE5
:1002800090E061E04AE050E035DF08958BEB90E0CC
:1002900061E04AE050E034DF8091BB00823020F022
:1002A0008091BB00883C18F083E68093BB008BEE06
:1002B00086B980E487B9789408951F920F920FB69B
:1002C0000F9211242F933F934F935F936F937F93DC
:1002D0008F939F93AF93BF93EF93FF9324B135B167
:1002E0008091BB0090E08217930718F480E061E0F2
:1002F0004DD0FF91EF91BF91AF919F918F917F91E1
:100300006F915F914F913F912F910F900FBE0F9082
:100310001F90189590E04DE350E0849F9001859FD9
:10032000300D949F300D11242F503E4FC901089578
:1003300080E090E06DE370E0869FA001879F500D04
:10034000969F500D1124FA01EF50FE4F14AE20E09D
:1003500030E0F901EE0FFF1FE40FF51FEF50FE4FE5
:10036000118210822F5F3F4F2E31310591F7019698
:100370008330910509F71092A8021092A9021092F9
:10038000AA021092AB021092AC020895E8EAF2E0E1
:10039000E80FF11D60830895E8EAF2E0E80FF11D2F
:1003A000808108958091AB01882319F08130E9F4B0
:1003B0000EC081E060E070E04EE150E0B6D181E037
:1003C0008093AB0180E014DF82E012DF0EC081E099
:1003D000BDD1813061F41092A8021092AB0180E08F
:1003E00007DF82E005DF81E0089580E0089580E086
:1003F000089540E01DC0E42FF0E0EE0FFF1FEF5026
:10040000FE4F80819181DF01DD962D913C91119706
:10041000855D9E4F821793078CF0808191812D918D
:100420003C9111978B529140281739074CF04F5F40
:1004300080916A024817F8F281E0089580E00895FB
:1004400080E00895CF93DF93EC01CC9661E04CE01F
:1004500050E056DE6CAD6F3110F01CAE05C0660F7B
:10046000CE014DE050E04CDEDF91CF91089560DF8A
:1004700081EF91E0E7DF0895CF93DF93EC01CC9615
:1004800061E04CE050E036DE6CAD660FCE014DE031
:1004900050E030DEDF91CF9108951F93CF93DF932B
:1004A000E091AC01F0E0E830F10508F09CC0ED5EB1
:1004B000FF4F09948091A802882309F494C082E038
:1004C00060E070E048E55BE130D125C06BDF813052
:1004D00009F089C083E085C082E038D1813031F4F1
:1004E0008091AA02813071F587E07BC08091A802DB
:1004F000882309F478C010916A02C12FD0E080E00F
:1005000039D19C01CC0FDD1FC25DDD4F39832883BB
:100510001F5F10936A0280E060E070E04FEF5FEFD2
:1005200004D181E05EC08091AA02813031F19091C6
:100530006A0280912D02981739F45BDF813011F443
:1005400085E04FC084E04DC0E0916A02E150F0E0E8
:10055000EE0FFF1FEF50FE4FDF01DD962D913C9116
:10056000119780819181845D9E4F821793072CF0B3
:100570008D919C9111978081918182E032C08CEBAA
:1005800090E06AE2AFD181E08093A90229C08EECAD
:1005900090E06AE2A7D11092A90281E08093AB02B9
:1005A0001FC082E06FEF7FEF4FEF5FEFBED080E0C4
:1005B0006FEF7FEF4FEF5FEFB8D010926A021092AB
:1005C000AC0111C08EE292E057DFE1EFF1E0DF0114
:1005D000DD968DE30D9001928150E1F71092AA0211
:1005E00086E08093AC01DF91CF911F9108958091B7
:1005F000AA01882319F08130D1F410C081E069DDAF
:100600008130A9F48093AA018093AA02D0DD83E00F
:10061000CEDD80E0CCDD82E0CADD08958091AA02C3
:10062000882329F41092AA01D2DD82E0D0DD08955A
:100630001F938091AB028130C1F41092AB0285E030
:1006400060E070E048EB5BE070D008C080E0BFDDA8
:1006500081E0BDDD82E0BBDD83E0B9DD85E076D001
:100660008130A1F7A4DD83E0A2DD8091E300813039
:1006700041F0813018F18230B1F0833009F048C088
:1006800036C080E026DD182F813039F484E072D046
:10069000883C9105E8F11093A9028091A90281306C
:1006A000B9F582E021C080E082DD81E090DD82E06A
:1006B0007EDD83E08CDD1092E30024C084E046D030
:1006C000813011F41092A90280E003DD813039F409
:1006D00084E050D0883C9105D8F01092A902809116
:1006E000A9028823A9F483E08093E30011C081E08C
:1006F0005EDD80E06CDD83E05ADD82E068DD81E074
:100700008093E30084E060E070E048E853E10DD0BE
:100710001F9108958FEF9FEF9DBD8CBD85E08EBD2D
:1007200089B7846089BF7894089590E0FC01EE0F4A
:10073000FF1FEE0FFF1FE80FF91FE355FD4F7183F9
:1007400060835383428381E08483089590E0FC01B9
:10075000EE0FFF1FEE0FFF1FE80FF91FE355FD4FD0
:10076000848181FF05C084818D7F848381E0089529
:1007700080E0089590E0FC01EE0FFF1FEE0FFF1FD9
:10078000E80FF91FE355FD4F20813181C90108951C
:1007900080E090E0FC01EE0FFF1FEE0FFF1FE80F5F
:1007A000F91FE355FD4F11821082138212821482C9
:1007B00001968630910571F7ADDF08951F920F9273
:1007C0000FB60F9211242F933F934F935F936F9324
:1007D0007F938F939F93EF93FF9380E090E0FC01D2
:1007E000EE0FFF1FEE0FFF1FE80FF91FE355FD4F40
:1007F000248120FF12C02081318142815381B901BF
:100800006F5F7F4F718360832417350730F0248139
:100810002E7F2483248122602483019686309105D3
:10082000F1F686EF9FEF9DBD8CBD85E08EBD89B74B
:10083000846089BFFF91EF919F918F917F916F911C
:100840005F914F913F912F910F900FBE0F901F908E
:100850001895899A089588E98AB986E880BD10BC00
:1008600082E389B978940895F4DFF5DF0895FC01F7
:1008700005C05D9BFECF81918CB961506623C9F79D
:100880000895DF93CF93CDB7DEB728970FB6F894CE
:10089000DEBF0FBECDBFFE01319667E021E030E044
:1008A00090E0A901062E02C0440F551F0A94E2F7FA
:1008B000482359231416150614F441E301C040E3FC
:1008C0004193662311F06150ECCFCE01019668E0B0
:1008D000CEDF28960FB6F894DEBF0FBECDBFCF9106
:1008E000DF910895282F392FF90103C05D9BFECFBA
:1008F0008CB981918617D1F708951F920F920FB688
:100900000F9211248F939F93EF93FF938BB19CB120
:100910008091AD01803851F08091AD01E82FF0E079
:10092000E553FD4F90838F5F8093AD01FF91EF9171
:100930009F918F910F900FBE0F901F90189520914F
:10094000AD012223E9F0F89467FD60E82091AD0144
:10095000621710F06091AD01462F0BC04150242F5B
:1009600030E0F901E553FD4F5081280F391FF9019F
:100970005083442399F71092AD017894862F0895FF
:1009800080E008958091AE018130C1F0813030F077
:100990008230D1F0843009F052C03AC081E017DCD7
:1009A00083E015DC80E013DC82E011DC80E060E0B5
:1009B00070E04EE150E0B9DE81E027C080E0C6DEA5
:1009C0008130E9F582E021C080E083DB8130C1F431
:1009D00041DC80E060E0DADC81E0E9DB83E0E7DB5A
:1009E0008FEF92E5A7E081509040A040E1F700C072
:1009F000000081E0ECDB83E0EADB1092AE010895B9
:100A000080E0CADC8130D9F484E08093AE0108959F
:100A100080E0CDDB82E0CBDB8FEF92E5A7E0815079
:100A20009040A040E1F700C0000080E0D0DB82E011
:100A3000CEDB80E060E0AADC82E08093AE01089526
:100A4000F8D09AD183E06FD277D108958091AF0129
:100A5000882319F0813091F40AC083E060E070E0EF
:100A600040E951E062DE81E08093AF0107C083E09E
:100A70006DDE813029F41092AF01089580E0089571
:100A800080E008950F931F93DF93CF93CDB7DEB728
:100A900029970FB6F894DEBF0FBECDBFDE011496C6
:100AA000E5E2F1E083E001900D928150E1F7DE0193
:100AB0001796E9E2F1E083E001900D928150E1F7B1
:100AC0008091B0018230F1F0833030F4882359F006
:100AD000813009F0A3C00DC0833009F447C08430D1
:100AE00009F09CC03AC082E057DC813009F096C022
:100AF00006C082E051DC882309F090C083E0809337
:100B0000B0018CC081EB91E060E43AD2082F8823D9
:100B1000D1F084EE90E06AE2E5DE81EB91E0602FB7
:100B2000A6DE9091B1018F81981709F077C090915E
:100B3000B2018885981709F071C09091B301898539
:100B40009817E1F26BC0F8D080EBBE016C5F7F4F6D
:100B500043E0F1D1E0D084E0D2CF78DF813021F4DE
:100B600089EF90E06AE2BEDE82E0C9CF89E091E0E1
:100B70006AE2B8DEE1D080E0CDDB8C018FE38093C8
:100B8000B101D801DC968C91DC978093B20120E012
:100B9000CE01029615C0DF01AA0FBB1FA00FB11F27
:100BA0003C9111964C913A834B83EE0FFF1FED540D
:100BB000FE4F3083DC0111963C91119731832F5FFA
:100BC000F80134ADE22FF0E0231728F3EE0FFF1FFA
:100BD000ED54FE4F8FE38083D801DC964C91440F97
:100BE0004D5F80EB61EB71E0A6D186E191E06AE2B6
:100BF00079DEF80184AD805D8983CE01019661E0E4
:100C000036DE80912D01982F915090932D018823ED
:100C100029F483E080932D011092B00129960FB63C
:100C2000F894DEBF0FBECDBFCF91DF911F910F9122
:100C3000089518BA8EE387BB80E58DB91EB81EB83B
:100C400008958FB9779BFECF8FB10895DF93CF932F
:100C50000F92CDB7DEB7C2986983F3DF80934B0361
:100C60006981862FEEDFC29A0F90CF91DF910895B0
:100C7000C298E7DF80934B0380E0E3DFC29A0895D8
:100C8000EF92FF920F931F93DF93CF930F92CDB705
:100C9000DEB7162F042FC2987983D3DF7981412FD5
:100CA000572F7A0105C080E0CCDFF70181937F01E7
:100CB0008E2D811B8017B8F3C29A0F90CF91DF91D0
:100CC0001F910F91FF90EF900895EF92FF920F9375
:100CD0001F93DF93CF930F92CDB7DEB7162F042F5C
:100CE000C2987983AEDF80934B037981412F572FD0
:100CF0007A0104C0F70181917F01A3DF8E2D811B52
:100D00008017C0F3C29A0F90CF91DF911F910F917E
:100D1000FF90EF90089582EE60E098DF87E0A8DF13
:100D2000682F87E293DFC19880E0A2DF682F6160BF
:100D300080E28CDFC19A089581EE60E087DFC19880
:100D400080E096DF682F6E7F80E280DFC19A089591
:100D50001F93182F87E08CDF87FF03C0112319F042
:100D600005C0112319F080E563E570DF1F91089538
:100D7000682F85E26BDF0895CF92DF92EF92FF92AA
:100D80000F931F93DF93CF93CDB7DEB72D970FB699
:100D9000F894DEBF0FBECDBF8FEF91EEA4E081507F
:100DA0009040A040E1F700C0000080E0D1DF01E703
:100DB00011E0D8018C91806211966C9147DF0E5F33
:100DC0001F4FB1E009391B07A1F734E3C32EC982D5
:100DD00023E4D22EDA8290E1E92EEB82EC82FF242A
:100DE000F394FD828AE28E010F5F1F4FB80145E048
:100DF0006CDF89E3898388E38A8387E38B8386E3D7
:100E00008C8382EC8D838BE2B80145E05EDFC98282
:100E1000DA82EB82EC82FD8280E3B80145E055DFA7
:100E20008DE126DF882319F480E563E70FDF8DE38A
:100E300067E00CDF8CE36FE309DF81E089DF0EE21E
:100E400011E090E07E010894E11CF11CF801219171
:100E50003191419151918F0129833A834B835C8376
:100E6000892F8062B70144E09D872FDF9D859F5FBA
:100E7000993061F782E5E82E81E0F82E8E010F5F50
:100E80001F4FD7012D913D914D915D917D0159836A
:100E90004A833B832C83892F8062B80144E09D877D
:100EA00014DF9D859F5F9E3061F7E6E6F1E0D80193
:100EB00081918D9381E0E137F807D1F78EE28E01C1
:100EC0000F5F1F4FB8014BE000DF86E98A8382E89D
:100ED0008B838BE18C838FED898384E2B80144E0BE
:100EE000F4DE8981897F898384E2B80144E0EDDE04
:100EF0008FE798E3A1E081509040A040E1F700C067
:100F0000000080E025DF07DF2D960FB6F894DEBFE6
:100F10000FBECDBFCF91DF911F910F91FF90EF904A
:100F2000DF90CF900895682F660F696F677286E231
:100F30008DDEF1DE0895EF92FF921F93DF93CF9342
:100F40000F92CDB7DEB7182F7B014983F5DE87E11D
:100F50008FDE498185FD0CC0812FB701B6DE8FEF92
:100F600090E7A2E081509040A040E1F700C000006F
:100F700080E00F90CF91DF911F91FF90EF90089547
:100F80000F931F93CF93DF93EC0187E071DE082F5F
:100F900086FF12C080E66CDE182F813228F481E6CD
:100FA000BE01412F6DDE03C082EE60E04FDE87E1BF
:100FB0005FDE80FFEFCF01C010E087E2602F46DEEA
:100FC000812FDF91CF911F910F910895DC01CB010B
:100FD000FC01E199FECF06C0FFBBEEBBE09A319663
:100FE0000DB20D9241505040B8F70895DC01CB018D
:100FF00002C02D9105D041505040D8F70895262FBA
:10100000E199FECF9FBB8EBB2DBB0FB6F894E29A41
:0C101000E19A0FBE01960895F894FFCFFE
:10101C000504030407060D0D0D20676F746F206324
:10102C006F6C6962726174654465746563746F7228
:10103C00200D2A000D0D0D205374617274696E67BA
:10104C002070726F6772616D200D2A0020695261E9
:10105C0053654D6163200D2A002065786974206901
:10106C00526153654D6163200D2A001420696E2076
:10107C0050524F434553535F4F4B200D2A0020696C
:10108C006E2050524F434553535F4552524F52209E
:10109C000D2A00032057414954424F58206765746C
:1010AC0020646174613A202A0020676F746F2057A6
:1010BC00414954424F580D2A002053454E44544F39
:1010CC00424F580D2A00206E6F636B20636F756E54
:1010DC00743A202A002A2A2A002B2B2B0003404B7F
:1010EC0001E2C04B0000D0FC8C0299003941D9962A
:1010FC00821B24027FA600000000000000000000FC
:10110C000000000000000000000000000000007360
:10111C0012000080B446412008048120CFF7FEFF66
:10112C00FF000F013F023F030304000533062707AE
:10113C0007080009000CC30DC40EC50FC611201200
:10114C0020132014201520162017001C3F1D0734D7
:0A115C004310100139383736C20085
:00000001FF
