:100000001AC034C033C032C031C030C02FC02EC07F
:100010003BC42CC02BC0D7C429C028C04EC126C0A9
:1000200025C024C023C0E9C2F6C2FBC221C333C32A
:1000300032C320C322C311241FBECFE5D4E0DEBFEC
:10004000CDBF12E0A0E6B0E0E8EEF0E102C005901E
:100050000D92AA38B107D9F714E0AAE8B2E001C0BE
:100060001D92AC32B107E1F7D3D03CC8C9CF44B33D
:100070002091600082E090E0BC0102C0660F771F13
:100080002A95E2F79B012095242324BB45B32091B8
:100090006000BC0102C0660F771F2A95E2F7462B6D
:1000A00045BB44B320916100BC0102C0660F771FBD
:1000B0002A95E2F79B012095242324BB25B3309198
:1000C000610002C0880F991F3A95E2F7282B25BBE3
:1000D000089523B3E82FF0E0E05AFF4F808130E02D
:1000E00002C0359527958A95E2F781E020FD80E0F2
:1000F00008950895E62FBA014E2F50E0DDD70895F8
:10010000E62FBA014E2F50E0C7D70895AF92BF92A5
:10011000CF92DF92EF92FF920F931F93CF93DF93D3
:100120007C01EB01C42E5901DD2411C06D2D70E05E
:100130008701060F171F6A0D7B1DC801AE01ACD7E2
:10014000F8018081D3948C1511F4D88203C0888182
:10015000D81660F3DF91CF911F910F91FF90EF9030
:10016000DF90CF90BF90AF90089580E090E021E0C5
:1001700030E061B3FC01EE59FF4F4081D90102C06C
:10018000AA0FBB1F4A95E2F76A2B61BB62B340819D
:10019000F90102C0EE0FFF1F4A95E2F7AF0140954B
:1001A000462342BB01968430910519F7089522B386
:1001B000E82FF0E0EE59FF4F308181E090E002C07F
:1001C000880F991F3A95E2F7282B22BB089522B396
:1001D000E82FF0E0EE59FF4F308181E090E002C05F
:1001E000880F991F3A95E2F78095822382BB089584
:1001F00022B3E82FF0E0EE59FF4F308181E090E02C
:1002000002C0880F991F3A95E2F7282722BB08956C
:10021000ACDF2DDF8FD322D339D081E05ADF81309C
:1002200031F486E690E06AE2C3D312D4FECF84E8CC
:1002300090E06AE2BDD3B7D18CE990E06AE2B8D32E
:1002400065D489EA90E06AE2B3D334D22BD280D469
:1002500052D2FBCF8091BB00883C18F082E08093A3
:10026000BB008091BB008E5F8093BB008BEB90E066
:1002700061E04AE050E03EDF08958093BB008BEBE5
:1002800090E061E04AE050E035DF08958BEB90E0CC
:1002900061E04AE050E034DF8091BB00823020F022
:1002A0008091BB00883C18F083E68093BB008BEE06
:1002B00086B980E487B9789408951F920F920FB69B
:1002C0000F9211242F933F934F935F936F937F93DC
:1002D0008F939F93AF93BF93EF93FF9324B135B167
:1002E0008091BB0090E08217930718F480E061E0F2
:1002F0004DD0FF91EF91BF91AF919F918F917F91E1
:100300006F915F914F913F912F910F900FBE0F9082
:100310001F90189590E04DE350E0849F9001859FD9
:10032000300D949F300D11242F523D4FC901089577
:1003300080E090E06DE370E0869FA001879F500D04
:10034000969F500D1124FA01EF52FD4F14AE20E09C
:1003500030E0F901EE0FFF1FE40FF51FEF52FD4FE4
:10036000118210822F5F3F4F2E31310591F7019698
:100370008330910509F71092880310928903109237
:100380008A0310928B0310928C030895E8E8F3E03F
:10039000E80FF11D60830895E8E8F3E0E80FF11D30
:1003A0008081089580918B02882319F0813009F5AE
:1003B00012C08CEB90E06AE2FBD281E060E070E07A
:1003C0004EE150E018D281E080938B0280E010DF94
:1003D00082E00EDF0EC081E01FD2813061F4109206
:1003E000880310928B0280E003DF82E001DF81E06E
:1003F000089580E0089580E008958CED90E06AE231
:10040000D7D240E01DC0E42FF0E0EE0FFF1FEF5207
:10041000FD4F80819181DF01DD962D913C911197F7
:1004200081579E4F821793078CF0808191812D9187
:100430003C9111978F589140281739074CF04F5F26
:1004400080914A034817F8F281E0089580E008950A
:1004500080E00895CF93DF938091C301833009F446
:1004600059C0843030F4813071F0823009F07AC0A4
:1004700014C0853009F45AC0853008F45BC086305A
:1004800009F070C05EC08EDF813009F06BC086EF6E
:1004900090E06AE28DD283E063C080918803882374
:1004A00009F460C080910D0380934A0340E00FC0BF
:1004B000F901EE0FFF1FE05FFC4F80819181F90190
:1004C000EE0FFF1FE25FFC4F918380834F5F242F6D
:1004D00030E080914A0390E001972817390744F3F0
:1004E00080914A03C82FD0E0219780E0A9D19C01D8
:1004F000CC0FDD1FC25FDC4F3983288380E060E0D2
:1005000070E04FEF5FEF77D18AE091E06AE250D27E
:1005100081E026C072DF813031F48EE191E06AE241
:1005200047D285E01DC082E391E017C081E080934F
:10053000890305C01092890381E080938B0386E0D4
:100540000FC08DE491E06AE233D280E06FEF7FEF7D
:100550004FEF5FEF50D183E691E06AE229D282E06B
:100560008093C301DF91CF910895CF93DF93EC0186
:100570008CE791E06AE21CD2CE01CC9661E04CE0BF
:1005800050E0BEDD6CAD6F3130F085E991E06AE29C
:100590000FD21CAE05C0660FCE014DE050E0B0DDBD
:1005A000DF91CF910895C4DE81ED92E0DEDFA19A64
:1005B000A99A0895CF93DF93EC018AEA91E06AE269
:1005C000F7D1CE01CC9661E04CE050E093DD6CAD0C
:1005D000660FCE014DE050E08DDDDF91CF910895A3
:1005E0001F93CF93DF93E0918C02F0E0E830F105A8
:1005F00008F054C0ED5EFF4F099480918803882372
:1006000009F44CC010924A0382E060E070E040E7D9
:1006100057E1F1D025C0C6DE813009F03FC083E04C
:100620003BC082E0F9D0813041F480918A0381306F
:1006300011F487E031C084E02FC0809188038823C3
:1006400069F110914A03C12FD0E080E0F9D0CC0FBE
:10065000DD1FC25FDC4F998388831F5F10934A03BD
:1006600080E060E070E04FEF5FEFC5D081E014C044
:1006700082E012C010928C0211C08EE093E09ADFEB
:10068000E1EDF2E0DF01DD968DE30D900192815006
:10069000E1F710928A0386E080938C02DF91CF917C
:1006A0001F91089580918A03813011F499DF089594
:1006B000D1DE089580918A02882319F08130D1F427
:1006C00010C081E006DD8130A9F480938A02809316
:1006D0008A036DDD83E06BDD80E069DD82E067DD4C
:1006E000089580918A03882329F410928A026FDD8D
:1006F00082E06DDD08951F9380918B038130C1F4FA
:1007000010928B0385E060E070E040ED57E073D01D
:1007100008C080E05CDD81E05ADD82E058DD83E0E6
:1007200056DD85E079D08130A1F741DD83E03FDD02
:100730008091C201813041F0813028F18230B9F0DE
:10074000833009F04BC038C080E0C3DC182F813003
:1007500041F484E075D0883C910508F43FC01093C3
:100760008903809189038130C9F582E022C080E04D
:100770001EDD81E02CDD82E01ADD83E028DDA99812
:100780001092C20125C084E047D0813011F410924C
:10079000890380E09EDC813039F484E051D0883CCC
:1007A0009105E0F010928903809189038823B1F4C8
:1007B00083E08093C20112C081E0F9DC80E007DDB4
:1007C00083E0F5DC82E003DDA99A81E08093C20139
:1007D00084E060E070E048E853E10DD01F91089597
:1007E0008FEF9FEF9DBD8CBD85E08EBD89B7846086
:1007F00089BF7894089590E0FC01EE0FFF1FEE0F83
:10080000FF1FE80FF91FE357FC4F71836083538389
:10081000428381E08483089590E0FC01EE0FFF1F86
:10082000EE0FFF1FE80FF91FE357FC4F848181FF94
:1008300005C084818D7F848381E0089580E00895E0
:1008400090E0FC01EE0FFF1FEE0FFF1FE80FF91FF6
:10085000E357FC4F20813181C901089580E090E089
:10086000FC01EE0FFF1FEE0FFF1FE80FF91FE3570C
:10087000FC4F1182108213821282148201968630FC
:10088000910571F7ADDF08951F920F920FB60F9289
:1008900011242F933F934F935F936F937F938F9385
:1008A0009F93EF93FF9380E090E0FC01EE0FFF1F1A
:1008B000EE0FFF1FE80FF91FE357FC4F248120FFC5
:1008C00012C02081318142815381B9016F5F7F4F16
:1008D000718360832417350730F024812E7F2483B1
:1008E000248122602483019686309105F1F686EFFB
:1008F0009FEF9DBD8CBD85E08EBD89B7846089BFAB
:10090000FF91EF919F918F917F916F915F914F91A7
:100910003F912F910F900FBE0F901F901895899ABD
:10092000089588E98AB986E880BD10BC82E389B958
:1009300078940895F4DFF5DF0895FC0105C05D9B10
:10094000FECF81918CB961506623C9F70895DF937A
:10095000CF93CDB7DEB728970FB6F894DEBF0FBEA2
:10096000CDBFFE01319667E021E030E090E0A901C3
:10097000062E02C0440F551F0A94E2F7482359235C
:100980001416150614F441E301C040E341936623B5
:1009900011F06150ECCFCE01019668E0CEDF2896D1
:1009A0000FB6F894DEBF0FBECDBFCF91DF91089593
:1009B000282F392FF90103C05D9BFECF8CB981919F
:1009C0008617D1F708951F920F920FB60F92112438
:1009D0008F939F93EF93FF938BB19CB180918D0286
:1009E000803851F080918D02E82FF0E0E555FC4F02
:1009F00090838F5F80938D02FF91EF919F918F91F4
:100A00000F900FBE0F901F90189520918D022223FA
:100A1000E9F0F89467FD60E820918D02621710F00C
:100A200060918D02462F0BC04150242F30E0F90118
:100A3000E555FC4F5081280F391FF901508344239D
:100A400099F710928D027894862F089580E008958A
:100A500080918E028130C1F0813030F08230D1F04F
:100A6000843009F052C03AC081E0B1DB83E0AFDBF3
:100A700080E0ADDB82E0ABDB80E060E070E04EE187
:100A800050E0B9DE81E027C080E0C6DE8130E9F5C4
:100A900082E021C080E01DDB8130C1F4DBDB80E03F
:100AA00060E074DC81E083DB83E081DB8FEF92E543
:100AB000A7E081509040A040E1F700C0000081E035
:100AC00086DB83E084DB10928E02089580E064DC94
:100AD0008130D9F484E080938E02089580E067DB52
:100AE00082E065DB8FEF92E5A7E081509040A04067
:100AF000E1F700C0000080E06ADB82E068DB80E0B4
:100B000060E044DC82E080938E020895F8D09AD1B0
:100B100083E06FD277D1089580918F02882319F0F6
:100B2000813091F40AC083E060E070E040E951E078
:100B300062DE81E080938F0207C083E06DDE81304A
:100B400029F410928F02089580E0089580E00895BE
:100B50000F931F93DF93CF93CDB7DEB729970FB6CF
:100B6000F894DEBF0FBECDBFDE011496E5E0F2E0E3
:100B700083E001900D928150E1F7DE011796E9E0E4
:100B8000F2E083E001900D928150E1F780919002B4
:100B90008230F1F0833030F4882359F0813009F04D
:100BA000A3C00DC0833009F447C0843009F09CC055
:100BB0003AC082E0F1DB813009F096C006C082E0E5
:100BC000EBDB882309F090C083E0809390028CC017
:100BD00081E992E060E43AD2082F8823D1F084ECD6
:100BE00091E06AE2E5DE81E992E0602FA6DE909175
:100BF00091028F81981709F077C0909192028885B1
:100C0000981709F071C09091930289859817E1F2C5
:100C10006BC0F8D080EBBE016C5F7F4F43E0F1D139
:100C2000E0D084E0D2CF78DF813021F489ED91E00B
:100C30006AE2BEDE82E0C9CF89EE91E06AE2B8DE08
:100C4000E1D080E067DB8C018FE380939102D801D3
:100C5000DC968C91DC978093920220E0CE01029684
:100C600015C0DF01AA0FBB1FA00FB11F3C91119649
:100C70004C913A834B83EE0FFF1FED56FD4F3083AF
:100C8000DC0111963C91119731832F5FF80134AD4F
:100C9000E22FF0E0231728F3EE0FFF1FED56FD4F74
:100CA0008FE38083D801DC964C91440F4D5F80EB3D
:100CB00061E972E0A6D186EF91E06AE279DEF8019F
:100CC00084AD805D8983CE01019661E036DE80913E
:100CD0000D02982F915090930D02882329F483E000
:100CE00080930D021092900229960FB6F894DEBF01
:100CF0000FBECDBFCF91DF911F910F91089518BA0C
:100D00008EE387BB80E58DB91EB81EB808958FB9F4
:100D1000779BFECF8FB10895DF93CF930F92CDB71E
:100D2000DEB7C2986983F3DF80932B046981862F35
:100D3000EEDFC29A0F90CF91DF910895C298E7DF5E
:100D400080932B0480E0E3DFC29A0895EF92FF9234
:100D50000F931F93DF93CF930F92CDB7DEB7162F6C
:100D6000042FC2987983D3DF7981412F572F7A01DD
:100D700005C080E0CCDFF70181937F018E2D811BC0
:100D80008017B8F3C29A0F90CF91DF911F910F9106
:100D9000FF90EF900895EF92FF920F931F93DF93D0
:100DA000CF930F92CDB7DEB7162F042FC298798359
:100DB000AEDF80932B047981412F572F7A0104C035
:100DC000F70181917F01A3DF8E2D811B8017C0F376
:100DD000C29A0F90CF91DF911F910F91FF90EF90EA
:100DE000089582EE60E098DF87E0A8DF682F87E251
:100DF00093DFC19880E0A2DF682F616080E28CDF22
:100E0000C19A089581EE60E087DFC19880E096DFA7
:100E1000682F6E7F80E280DFC19A08951F93182F9C
:100E200087E08CDF87FF03C0112319F005C0112371
:100E300019F080E563E570DF1F910895682F85E262
:100E40006BDF0895CF92DF92EF92FF920F931F9383
:100E5000DF93CF93CDB7DEB72D970FB6F894DEBFF3
:100E60000FBECDBF8FEF91EEA4E081509040A04027
:100E7000E1F700C0000080E0D1DF01E512E0D80119
:100E80008C91806211966C9147DF0E5F1F4FB2E02C
:100E900009371B07A1F734E3C32EC98223E4D22EFE
:100EA000DA8290E1E92EEB82EC82FF24F394FD825A
:100EB0008AE28E010F5F1F4FB80145E06CDF89E3C6
:100EC000898388E38A8387E38B8386E38C8382EC40
:100ED0008D838BE2B80145E05EDFC982DA82EB8266
:100EE000EC82FD8280E3B80145E055DF8DE126DF2D
:100EF000882319F480E563E70FDF8DE367E00CDFFB
:100F00008CE36FE309DF81E089DF0EE012E090E01F
:100F10007E010894E11CF11CF8012191319141916D
:100F200051918F0129833A834B835C83892F80629F
:100F3000B70144E09D872FDF9D859F5F993061F762
:100F400082E3E82E82E0F82E8E010F5F1F4FD7015B
:100F50002D913D914D915D917D0159834A833B8354
:100F60002C83892F8062B80144E09D8714DF9D8522
:100F70009F5F9E3061F7E6E4F2E0D80181918D93A6
:100F800082E0E135F807D1F78EE28E010F5F1F4F47
:100F9000B8014BE000DF86E98A8382E88B838BE12E
:100FA0008C838FED898384E2B80144E0F4DE89818B
:100FB000897F898384E2B80144E0EDDE8FE798E31E
:100FC000A1E081509040A040E1F700C0000080E027
:100FD00025DF07DF2D960FB6F894DEBF0FBECDBF1D
:100FE000CF91DF911F910F91FF90EF90DF90CF9005
:100FF0000895682F660F696F677286E28DDEF1DEF5
:101000000895EF92FF921F93DF93CF930F92CDB786
:10101000DEB7182F7B014983F5DE87E18FDE49813A
:1010200085FD0CC0812FB701B6DE8FEF90E7A2E0FF
:1010300081509040A040E1F700C0000080E00F9098
:10104000CF91DF911F91FF90EF9008950F931F9321
:10105000CF93DF93EC0187E071DE082F86FF12C08B
:1010600080E66CDE182F813228F481E6BE01412F24
:101070006DDE03C082EE60E04FDE87E15FDE80FF61
:10108000EFCF01C010E087E2602F46DE812FDF91B5
:10109000CF911F910F910895DC01CB01FC01E199E3
:1010A000FECF06C0FFBBEEBBE09A31960DB20D92AB
:1010B00041505040B8F70895DC01CB0102C02D919A
:1010C00005D041505040D8F70895262FE199FECF22
:1010D0009FBB8EBB2DBB0FB6F894E29AE19A0FBE70
:0810E00001960895F894FFCF7A
:1010E8000504030407060D0D0D20676F746F206358
:1010F8006F6C6962726174654465746563746F725C
:10110800200D2A000D0D0D205374617274696E67ED
:101118002070726F6772616D200D2A00206952611C
:1011280053654D6163200D2A002065786974206934
:10113800526153654D6163200D2A001420696E20A9
:1011480070726F63657373576169744E6F69736505
:101158002829206669727374200D2A0020696E2080
:1011680070726F63657373436865636B4E6F636B0F
:101178002829200D2A0020676F746F2043484543B3
:101188004B5F4E4F434B200D2A0020676F746F2032
:10119800574149545F4E4F495345200D2A00206757
:1011A8006F746F2050524F434553535F4F4B200D80
:1011B8002A0020676F746F20574149545F43555286
:1011C80052454E545F4E4F434B200D2A0020696E06
:1011D8002050524F434553535F5245535345542073
:1011E8000D2A0020676F746F20574149545F4649A4
:1011F8005253545F4E4F434B200D2A0020696E20F6
:101208006E6F636B5265616446726F6D45455052EF
:101218004F4D0D2A00206E6F206E6F636B20696E34
:1012280020656570726F6D0D2A0020696E206E6FE3
:10123800636B5772697465546F454550524F4D0D35
:101248002A0002022057414954424F5820676574CA
:1012580020646174613A202A0020676F746F2057F8
:10126800414954424F580D2A002053454E44544F8B
:10127800424F580D2A00206E6F636B20636F756EA6
:10128800743A202A002A2A2A002B2B2B0003404BD1
:1012980001E2C04B0000D0FC8C0299003941D9967C
:1012A800821B24027FA6000000000000000000004E
:1012B80000000000000000000000000000000073B3
:1012C80012000080B446412008048120CFF7FEFFB9
:1012D800FF000F013F023F03030400053306270701
:1012E80007080009000CC30DC40EC50FC611201253
:1012F80020132014201520162017001C3F1D07342A
:0A1308004310100139383736C200D7
:00000001FF
