:100000001AC034C033C032C031C030C02FC02EC07F
:1000100051C42CC02BC0EDC429C028C04EC126C07D
:1000200025C024C023C0F2C2FFC204C32BC34EC3E9
:100030004DC32AC32CC311241FBECFE5D4E0DEBFBD
:10004000CDBF11E0A0E6B0E0E4E1F1E102C005902F
:100050000D92A439B107D9F713E0A4E9B1E001C0CA
:100060001D92A633B107E1F7D3D052C8C9CF44B32C
:100070002091600082E090E0BC0102C0660F771F13
:100080002A95E2F79B012095242324BB45B32091B8
:100090006000BC0102C0660F771F2A95E2F7462B6D
:1000A00045BB44B320916100BC0102C0660F771FBD
:1000B0002A95E2F79B012095242324BB25B3309198
:1000C000610002C0880F991F3A95E2F7282B25BBE3
:1000D000089523B3E82FF0E0E05AFF4F808130E02D
:1000E00002C0359527958A95E2F781E020FD80E0F2
:1000F00008950895E62FBA014E2F50E0F3D70895E2
:10010000E62FBA014E2F50E0DDD70895AF92BF928F
:10011000CF92DF92EF92FF920F931F93CF93DF93D3
:100120007C01EB01C42E5901DD2411C06D2D70E05E
:100130008701060F171F6A0D7B1DC801AE01C2D7CC
:10014000F8018081D3948C1511F4D88203C0888182
:10015000D81660F3DF91CF911F910F91FF90EF9030
:10016000DF90CF90BF90AF90089580E090E021E0C5
:1001700030E061B3FC01EE59FF4F4081D90102C06C
:10018000AA0FBB1F4A95E2F76A2B61BB62B340819D
:10019000F90102C0EE0FFF1F4A95E2F7AF0140954B
:1001A000462342BB01968430910519F7089522B386
:1001B000E82FF0E0EE59FF4F308181E090E002C07F
:1001C000880F991F3A95E2F7282B22BB089522B396
:1001D000E82FF0E0EE59FF4F308181E090E002C05F
:1001E000880F991F3A95E2F78095822382BB089584
:1001F00022B3E82FF0E0EE59FF4F308181E090E02C
:1002000002C0880F991F3A95E2F7282722BB08956C
:10021000ACDF2DDFA5D338D339D081E05ADF813070
:1002200031F486E690E06AE2D9D328D4FECF84E8A0
:1002300090E06AE2D3D3C2D18CE990E06AE2CED3F7
:100240007BD489EA90E06AE2C9D34FD246D296D4F1
:100250006DD2FBCF8091BB00883C18F082E0809388
:10026000BB008091BB008E5F8093BB008BEB90E066
:1002700061E04AE050E03EDF08958093BB008BEBE5
:1002800090E061E04AE050E035DF08958BEB90E0CC
:1002900061E04AE050E034DF8091BB00823020F022
:1002A0008091BB00883C18F083E68093BB008BEE06
:1002B00086B980E487B9789408951F920F920FB69B
:1002C0000F9211242F933F934F935F936F937F93DC
:1002D0008F939F93AF93BF93EF93FF9324B135B167
:1002E0008091BB0090E08217930718F480E061E0F2
:1002F0004DD0FF91EF91BF91AF919F918F917F91E1
:100300006F915F914F913F912F910F900FBE0F9082
:100310001F90189590E04DE350E0849F9001859FD9
:10032000300D949F300D112425523E4FC901089580
:1003300080E090E06DE370E0869FA001879F500D04
:10034000969F500D1124FA01E552FE4F14AE20E0A5
:1003500030E0F901EE0FFF1FE40FF51FE552FE4FED
:10036000118210822F5F3F4F2E31310591F7019698
:100370008330910509F71092920210929302109225
:10038000940210929502109296020895E2E9F2E02A
:10039000E80FF11D60830895E2E9F2E0E80FF11D36
:1003A0008081089580919501882319F08130E9F4C6
:1003B0000EC081E060E070E04EE150E032D281E0BA
:1003C0008093950180E014DF82E012DF0EC081E0AF
:1003D00039D2813061F4109292021092950180E03E
:1003E00007DF82E005DF81E0089580E0089580E086
:1003F0000895DF93CF930F92CDB7DEB780911702A8
:10040000805D8983CE01019661E0ADD240E01DC0E0
:10041000E42FF0E0EE0FFF1FE552FE4F8081918147
:10042000DF01DD962D913C911197855D9E4F8217DE
:1004300093078CF0808191812D913C9111978B5283
:100440009140281739073CF04F5F809117024817F9
:10045000F8F281E001C080E00F90CF91DF91089524
:10046000CF93DF938091CE00833009F450C0843065
:1004700030F4813071F0823009F071C010C08530E5
:1004800009F44AC0853008F44BC0863009F067C0D3
:100490004EC088DF813009F062C083E05EC0809189
:1004A0009202882309F45BC0809117028093540262
:1004B00040E00FC0F901EE0FFF1FE65EFD4F8081A7
:1004C0009181F901EE0FFF1FE85EFD4F918380835C
:1004D0004F5F242F30E08091540290E0019728175D
:1004E000390744F380915402C82FD0E0219780E06F
:1004F000BDD1CC0FDD1FC85EDD4F9983888380E0BE
:1005000060E070E04FEF5FEF8CD181E026C071DFDB
:10051000813011F585E021C081E08093930205C010
:100520001092930281E08093950286E016C080E0ED
:100530006FEF7FEF4FEF5FEF74D180E090E0FC0151
:10054000EE0FFF1FE85EFD4F1182108201968E3183
:100550009105A9F71092540282E08093CE00DF91BA
:10056000CF9108950F931F93DF93CF930F92CDB741
:10057000DEB78C01CC9661E04CE050E0C1DDF801C3
:1005800084AD8F3110F014AE13C08CEB90E06AE2B2
:1005900025D2F80184AD805D8983CE01019661E0AA
:1005A000E2D1F80164AD660FC8014DE050E0A8DD6E
:1005B0000F90CF91DF911F910F910895B9DE8BEDD0
:1005C00091E0D0DFA19AA99A81E0809393020895E7
:1005D000CF93DF93EC01CC9661E04CE050E08ADDF4
:1005E0006CAD660FCE014DE050E084DDDF91CF9120
:1005F00008951F93CF93DF93E0919601F0E0E830E8
:10060000F10508F066C0ED5EFF4F099480919202FB
:10061000882309F45EC01092540282E060E070E02A
:1006200040E757E1FED026C0BDDE813009F051C061
:1006300083E04DC082E006D1813041F48091940284
:10064000813011F487E043C084E041C08091920280
:10065000882309F43EC010915402C12FD0E080E0FD
:1006600005D1CC0FDD1FC85EDD4F998388831F5FE6
:100670001093540280E060E070E04FEF5FEFD1D064
:1006800081E025C082E023C01092960122C0EBEDEC
:10069000F1E0DF01DD968DE30D9001928150E1F7ED
:1006A0008BED91E095DF1092940280E009C0E82F75
:1006B000F0E0EE0FFF1FE85EFD4F118210828F5FAA
:1006C00090915402891798F31092540286E0809317
:1006D0009601DF91CF911F9108958091940281300E
:1006E00011F487DF0895BCDE08958091940188237A
:1006F00019F08130D1F410C081E0EBDC8130A9F435
:10070000809394018093940252DD83E050DD80E079
:100710004EDD82E04CDD089580919402882329F417
:100720001092940154DD82E052DD08951F93809170
:1007300095028130C1F41092950285E060E070E08E
:1007400040ED57E06ED008C080E041DD81E03FDD44
:1007500082E03DDD83E03BDD85E074D08130A1F7B0
:1007600026DD83E024DD8091CD00813041F08130B1
:1007700020F18230B1F0833009F046C031C080E012
:10078000A8DC182F813039F484E070D0883C9105C2
:10079000D8F110939302809193028130A9F582E001
:1007A0001CC080E004DD81E012DD82E000DD83E03A
:1007B0000EDDA9981092CD0021C080E08ADC813046
:1007C00039F484E053D0883C9105F0F01092930204
:1007D000809193028823C1F483E08093CD0014C0FC
:1007E00081E0E5DC80E0F3DC83E0E1DC82E0EFDC6B
:1007F000A99A1092930281E08093CD0084E060E09A
:1008000070E048E853E10DD01F9108958FEF9FEFFE
:100810009DBD8CBD85E08EBD89B7846089BF78940D
:10082000089590E0FC01EE0FFF1FEE0FFF1FE80F91
:10083000F91FE956FD4F718360835383428381E042
:100840008483089590E0FC01EE0FFF1FEE0FFF1F61
:10085000E80FF91FE956FD4F848181FF05C08481AF
:100860008D7F848381E0089580E0089590E0FC010D
:10087000EE0FFF1FEE0FFF1FE80FF91FE956FD4FA8
:1008800020813181C901089580E090E0FC01EE0FE4
:10089000FF1FEE0FFF1FE80FF91FE956FD4F1182F2
:1008A000108213821282148201968630910571F7AC
:1008B000ADDF08951F920F920FB60F9211242F9360
:1008C0003F934F935F936F937F938F939F93EF9398
:1008D000FF9380E090E0FC01EE0FFF1FEE0FFF1F83
:1008E000E80FF91FE956FD4F248120FF12C0208137
:1008F000318142815381B9016F5F7F4F7183608382
:100900002417350730F024812E7F24832481226030
:100910002483019686309105F1F686EF9FEF9DBD09
:100920008CBD85E08EBD89B7846089BFFF91EF9152
:100930009F918F917F916F915F914F913F912F91F7
:100940000F900FBE0F901F901895899A089588E90F
:100950008AB986E880BD10BC82E389B9789408958D
:10096000F4DFF5DF0895FC0105C05D9BFECF8191AA
:100970008CB961506623C9F70895DF93CF93CDB743
:10098000DEB728970FB6F894DEBF0FBECDBFFE01CD
:10099000319667E021E030E090E0A901062E02C028
:1009A000440F551F0A94E2F74823592314161506DD
:1009B00014F441E301C040E34193662311F0615018
:1009C000ECCFCE01019668E0CEDF28960FB6F89402
:1009D000DEBF0FBECDBFCF91DF910895282F392FF5
:1009E000F90103C05D9BFECF8CB981918617D1F7C9
:1009F00008951F920F920FB60F9211248F939F9319
:100A0000EF93FF938BB19CB180919701803851F0A7
:100A100080919701E82FF0E0EB54FD4F90838F5FBA
:100A200080939701FF91EF919F918F910F900FBE4F
:100A30000F901F901895209197012223E9F0F894C8
:100A400067FD60E820919701621710F060919701AF
:100A5000462F0BC04150242F30E0F901EB54FD4FDD
:100A60005081280F391FF9015083442399F71092C0
:100A700097017894862F089580E0089580919801D9
:100A80008130C1F0813030F08230D1F0843009F013
:100A900052C03AC081E09BDB83E099DB80E097DBCA
:100AA00082E095DB80E060E070E04EE150E0B9DE8E
:100AB00081E027C080E0C6DE8130E9F582E021C018
:100AC00080E007DB8130C1F4C5DB80E060E05EDC04
:100AD00081E06DDB83E06BDB8FEF92E5A7E0815077
:100AE0009040A040E1F700C0000081E070DB83E0AF
:100AF0006EDB10929801089580E04EDC8130D9F4CD
:100B000084E080939801089580E051DB82E04FDB20
:100B10008FEF92E5A7E081509040A040E1F700C040
:100B2000000080E054DB82E052DB80E060E02EDCFD
:100B300082E0809398010895F8D09AD183E06FD233
:100B400077D1089580919901882319F0813091F42B
:100B50000AC083E060E070E040E951E062DE81E0DD
:100B60008093990107C083E06DDE813029F41092F3
:100B70009901089580E0089580E008950F931F93F0
:100B8000DF93CF93CDB7DEB729970FB6F894DEBFCA
:100B90000FBECDBFDE011496E0E1F1E083E00190ED
:100BA0000D928150E1F7DE011796E4E1F1E083E078
:100BB00001900D928150E1F780919A018230F1F01D
:100BC000833030F4882359F0813009F0A3C00DC080
:100BD000833009F447C0843009F09CC03AC082E0F9
:100BE000DBDB813009F096C006C082E0D5DB8823CC
:100BF00009F090C083E080939A018CC08BE991E06A
:100C000060E43AD2082F8823D1F08FEC90E06AE2BA
:100C1000E5DE8BE991E0602FA6DE90919B018F814C
:100C2000981709F077C090919C018885981709F072
:100C300071C090919D0189859817E1F26BC0F8D041
:100C400080EBBE016C5F7F4F43E0F1D1E0D084E0E8
:100C5000D2CF78DF813021F484EE90E06AE2BEDE0C
:100C600082E0C9CF84EF90E06AE2B8DEE1D080E0B4
:100C700051DB8C018FE380939B01D801DC968C9132
:100C8000DC9780939C0120E0CE01029615C0DF0125
:100C9000AA0FBB1FA00FB11F3C9111964C913A8334
:100CA0004B83EE0FFF1FE356FE4F3083DC0111969E
:100CB0003C91119731832F5FF80134ADE22FF0E0C2
:100CC000231728F3EE0FFF1FE356FE4F8FE38083B9
:100CD000D801DC964C91440F4D5F80EB6BE971E0DD
:100CE000A6D181E091E06AE279DEF80184AD805D11
:100CF0008983CE01019661E036DE80911801982F3C
:100D0000915090931801882329F483E0809318016F
:100D100010929A0129960FB6F894DEBF0FBECDBF90
:100D2000CF91DF911F910F91089518BA8EE387BB81
:100D300080E58DB91EB81EB808958FB9779BFECF98
:100D40008FB10895DF93CF930F92CDB7DEB7C298DE
:100D50006983F3DF809335036981862FEEDFC29AC2
:100D60000F90CF91DF910895C298E7DF809335030C
:100D700080E0E3DFC29A0895EF92FF920F931F93F2
:100D8000DF93CF930F92CDB7DEB7162F042FC29803
:100D90007983D3DF7981412F572F7A0105C080E015
:100DA000CCDFF70181937F018E2D811B8017B8F373
:100DB000C29A0F90CF91DF911F910F91FF90EF900A
:100DC0000895EF92FF920F931F93DF93CF930F92AB
:100DD000CDB7DEB7162F042FC2987983AEDF80938C
:100DE00035037981412F572F7A0104C0F701819192
:100DF0007F01A3DF8E2D811B8017C0F3C29A0F9055
:100E0000CF91DF911F910F91FF90EF90089582EEA7
:100E100060E098DF87E0A8DF682F87E293DFC19862
:100E200080E0A2DF682F616080E28CDFC19A0895C4
:100E300081EE60E087DFC19880E096DF682F6E7FEB
:100E400080E280DFC19A08951F93182F87E08CDF1E
:100E500087FF03C0112319F005C0112319F080E5A5
:100E600063E570DF1F910895682F85E26BDF0895B9
:100E7000CF92DF92EF92FF920F931F93DF93CF9366
:100E8000CDB7DEB72D970FB6F894DEBF0FBECDBF3E
:100E90008FEF91EEA4E081509040A040E1F700C0B8
:100EA000000080E0D1DF0CE511E0D8018C91806278
:100EB00011966C9147DF0E5F1F4FB1E004381B079E
:100EC000A1F734E3C32EC98223E4D22EDA8290E163
:100ED000E92EEB82EC82FF24F394FD828AE28E01FC
:100EE0000F5F1F4FB80145E06CDF89E3898388E31A
:100EF0008A8387E38B8386E38C8382EC8D838BE20A
:100F0000B80145E05EDFC982DA82EB82EC82FD82C5
:100F100080E3B80145E055DF8DE126DF882319F431
:100F200080E563E70FDF8DE367E00CDF8CE36FE3C1
:100F300009DF81E089DF09E111E090E07E0108949A
:100F4000E11CF11CF80121913191419151918F01E6
:100F500029833A834B835C83892F8062B70144E005
:100F60009D872FDF9D859F5F993061F78DE3E82E88
:100F700081E0F82E8E010F5F1F4FD7012D913D911B
:100F80004D915D917D0159834A833B832C83892F49
:100F90008062B80144E09D8714DF9D859F5F9E308D
:100FA00061F7E1E5F1E0D80181918D9381E0EC35C5
:100FB000F807D1F78EE28E010F5F1F4FB8014BE0AB
:100FC00000DF86E98A8382E88B838BE18C838FED57
:100FD000898384E2B80144E0F4DE8981897F8983D2
:100FE00084E2B80144E0EDDE8FE798E3A1E08150B0
:100FF0009040A040E1F700C0000080E025DF07DF5F
:101000002D960FB6F894DEBF0FBECDBFCF91DF9106
:101010001F910F91FF90EF90DF90CF900895682F70
:10102000660F696F677286E28DDEF1DE0895EF92DA
:10103000FF921F93DF93CF930F92CDB7DEB7182F98
:101040007B014983F5DE87E18FDE498185FD0CC098
:10105000812FB701B6DE8FEF90E7A2E0815090407C
:10106000A040E1F700C0000080E00F90CF91DF9139
:101070001F91FF90EF9008950F931F93CF93DF93ED
:10108000EC0187E071DE082F86FF12C080E66CDE7F
:10109000182F813228F481E6BE01412F6DDE03C096
:1010A00082EE60E04FDE87E15FDE80FFEFCF01C0C0
:1010B00010E087E2602F46DE812FDF91CF911F91F4
:1010C0000F910895DC01CB01FC01E199FECF06C030
:1010D000FFBBEEBBE09A31960DB20D9241505040ED
:1010E000B8F70895DC01CB0102C02D9105D0415025
:1010F0005040D8F70895262FE199FECF9FBB8EBBB5
:101100002DBB0FB6F894E29AE19A0FBE01960895AE
:04111000F894FFCF81
:101114000504030407060D0D0D20676F746F20632B
:101124006F6C6962726174654465746563746F722F
:10113400200D2A000D0D0D205374617274696E67C1
:101144002070726F6772616D200D2A0020695261F0
:1011540053654D6163200D2A002065786974206908
:10116400526153654D6163200D2A0014206565703A
:10117400726F6D20636F756E743A202A000202202C
:1011840057414954424F5820676574206461746123
:101194003A202A0020676F746F2057414954424F08
:1011A400580D2A002053454E44544F424F580D2A9F
:1011B40000206E6F636B20636F756E743A202A0093
:1011C4002A2A2A002B2B2B0003404B01E2C04B00A0
:1011D40000D0FC8C0299003941D996821B24027FED
:1011E400A600000000000000000000000000000055
:1011F400000000000000000000007312000080B432
:1012040046412008048120CFF7FEFFFF000F013F75
:10121400023F0303040005330627070708000900FB
:101224000CC30DC40EC50FC61120122013201420A8
:101234001520162017001C3F1D07344310100139D8
:04124400383736C23F
:00000001FF
