:100000001AC034C033C032C031C030C02FC02EC07F
:10001000BAC32CC02BC056C429C028C03EC126C0BC
:1000200025C024C023C034C23FC244C26AC298C2A1
:1000300093C29CC2ACC211241FBECFE5D4E0DEBF88
:10004000CDBF10E0A0E6B0E0E8E6FFE002C005901A
:100050000D92AC3EB107D9F712E0ACEEB0E001C0B2
:100060001D92AE38B107E1F7D3D07CC7C9CF44B3F6
:100070002091600082E090E0BC0102C0660F771F13
:100080002A95E2F79B012095242324BB45B32091B8
:100090006000BC0102C0660F771F2A95E2F7462B6D
:1000A00045BB44B320916100BC0102C0660F771FBD
:1000B0002A95E2F79B012095242324BB25B3309198
:1000C000610002C0880F991F3A95E2F7282B25BBE3
:1000D000089523B3E82FF0E0E05AFF4F808130E02D
:1000E00002C0359527958A95E2F781E020FD80E0F2
:1000F00008950895E62FBA014E2F50E01DD70895B8
:10010000E62FBA014E2F50E007D70895AF92BF9265
:10011000CF92DF92EF92FF920F931F93CF93DF93D3
:100120007C01EB01C42E5901DD2411C06D2D70E05E
:100130008701060F171F6A0D7B1DC801AE01ECD6A3
:10014000F8018081D3948C1511F4D88203C0888182
:10015000D81660F3DF91CF911F910F91FF90EF9030
:10016000DF90CF90BF90AF90089580E090E021E0C5
:1001700030E061B3FC01EE59FF4F4081D90102C06C
:10018000AA0FBB1F4A95E2F76A2B61BB62B340819D
:10019000F90102C0EE0FFF1F4A95E2F7AF0140954B
:1001A000462342BB01968430910519F7089522B386
:1001B000E82FF0E0EE59FF4F308181E090E002C07F
:1001C000880F991F3A95E2F7282B22BB089522B396
:1001D000E82FF0E0EE59FF4F308181E090E002C05F
:1001E000880F991F3A95E2F78095822382BB089584
:1001F00022B3E82FF0E0EE59FF4F308181E090E02C
:1002000002C0880F991F3A95E2F7282722BB08956C
:10021000ACDF2DDF0ED3A1D229D081E05ADF8130AF
:1002200011F495D3FECF11D1F0D3C6D124D10FD480
:10023000E4D1FBCF80916600883C18F082E0809387
:100240006600809166008E5F8093660086E690E08F
:1002500061E04AE050E04EDF08958093660086E654
:1002600090E061E04AE050E045DF089586E690E0E6
:1002700061E04AE050E044DF80916600823020F087
:1002800080916600883C18F083E6809366008BEED0
:1002900086B980E487B9789408951F920F920FB6BB
:1002A0000F9211242F933F934F935F936F937F93FC
:1002B0008F939F93AF93BF93EF93FF9324B135B187
:1002C0008091660090E08217930718F480E061E067
:1002D0004DD0FF91EF91BF91AF919F918F917F9101
:1002E0006F915F914F913F912F910F900FBE0F90A3
:1002F0001F90189590E04DE350E0849F9001859FFA
:10030000300D949F300D11242D5C3E4FC90108958E
:1003100080E090E06DE370E0869FA001879F500D24
:10032000969F500D1124FA01ED5CFE4F14AE20E0B3
:1003300030E0F901EE0FFF1FE40FF51FED5CFE4FFB
:10034000118210822F5F3F4F2E31310591F70196B8
:100350008330910509F71092EA011092EB01109297
:10036000EC011092ED011092EE010895EAEEF1E039
:10037000E80FF11D60830895EAEEF1E0E80FF11D4A
:10038000808108958091ED00882319F08130E9F48F
:100390000EC081E060E070E04AE050E0ABD181E067
:1003A0008093ED0080E024DF82E022DF0EC081E058
:1003B000B2D1813061F41092EA011092ED0080E038
:1003C00017DF82E015DF81E0089580E0089580E086
:1003D000089540E01BC0E42FF0E0EE0FFF1FED5C3E
:1003E000FE4F80819181DF01DD962D913C91119727
:1003F0004D968217930784F0808191812D913C91D5
:1004000011974D97281739074CF04F5F8091AC0139
:10041000481708F381E0089580E0089580E008958A
:10042000CF93DF93EC01CC9661E04CE050E068DEC6
:100430006CAD6F3110F01CAE05C0660FCE014DE003
:1004400050E05EDEDF91CF91089562DF83E391E0BB
:10045000E7DF0895CF93DF93EC01CC9661E04CE0A9
:1004600050E048DE6CAD660FCE014DE050E042DE5C
:10047000DF91CF9108951F93CF93DF93E091EE002A
:10048000F0E0E830F10508F093C0ED5EFF4F09940D
:100490008091EA01882309F48BC082E060E070E07B
:1004A0004CED55E027D125C06DDF813009F080C0CB
:1004B00083E07CC082E02FD1813031F48091EC0167
:1004C000813071F587E072C08091EA01882309F4D8
:1004D0006FC01091AC01C12FD0E080E030D19C0101
:1004E000CC0FDD1FC059DE4F398328831F5F109367
:1004F000AC0180E060E070E04FEF5FEFFBD081E0A7
:1005000055C08091EC01813029F19091AC0180912E
:100510006F01981739F45DDF813011F485E046C032
:1005200084E044C0E091AC01E150F0E0EE0FFF1F29
:10053000ED5CFE4FDF01DD962D913C91119780819E
:1005400091814E96821793072CF08D919C91119773
:100550008081918182E02AC081E08093EB0125C0F7
:100560001092EB0181E08093ED011FC082E06FEFFC
:100570007FEF4FEF5FEFBED080E06FEF7FEF4FEF89
:100580005FEFB8D01092AC011092EE0011C080E77E
:1005900091E060DFE3E3F1E0DF01DD968DE30D90B4
:1005A00001928150E1F71092EC0186E08093EE0019
:1005B000DF91CF911F9108958091EC00882319F06D
:1005C0008130D1F410C081E084DD8130A9F48093C2
:1005D000EC008093EC01EBDD83E0E9DD80E0E7DD1A
:1005E00082E0E5DD08958091EC01882329F41092E2
:1005F000EC00EDDD82E0EBDD08951F938091ED01CD
:100600008130C1F41092ED0185E060E070E048ECCB
:1006100050E070D008C080E0DADD81E0D8DD82E013
:10062000D6DD83E0D4DD85E076D08130A1F7BFDD73
:1006300083E0BDDD80916700813041F0813018F1A9
:100640008230B1F0833009F048C036C080E041DD2F
:10065000182F813039F484E072D08E319105E8F1A1
:100660001093EB018091EB018130B9F582E021C05C
:1006700080E09DDD81E0ABDD82E099DD83E0A7DDF8
:100680001092670024C084E046D0813011F41092AB
:10069000EB0180E01EDD813039F484E050D08E31F2
:1006A0009105D8F01092EB018091EB018823A9F419
:1006B00083E08093670011C081E079DD80E087DD11
:1006C00083E075DD82E083DD81E08093670084E074
:1006D00060E070E048E853E10DD01F9108958FEF7E
:1006E0009FEF9DBD8CBD85E08EBD89B7846089BFBD
:1006F0007894089590E0FC01EE0FFF1FEE0FFF1FAE
:10070000E80FF91FE151FE4F7183608353834283E9
:1007100081E08483089590E0FC01EE0FFF1FEE0F4F
:10072000FF1FE80FF91FE151FE4F848181FF05C0D3
:1007300084818D7F848381E0089580E0089590E036
:10074000FC01EE0FFF1FEE0FFF1FE80FF91FE15135
:10075000FE4F20813181C901089580E090E0FC01C5
:10076000EE0FFF1FEE0FFF1FE80FF91FE151FE4FC5
:1007700011821082138212821482019686309105B2
:1007800071F7ADDF08951F920F920FB60F921124EB
:100790002F933F934F935F936F937F938F939F9389
:1007A000EF93FF9380E090E0FC01EE0FFF1FEE0F50
:1007B000FF1FE80FF91FE151FE4F248120FF12C0F7
:1007C0002081318142815381B9016F5F7F4F7183F5
:1007D00060832417350730F024812E7F2483248101
:1007E00022602483019686309105F1F689EF9FEF10
:1007F0009DBD8CBD85E08EBD89B7846089BFFF91AA
:10080000EF919F918F917F916F915F914F913F9168
:100810002F910F900FBE0F901F901895899A0895F1
:1008200088E98AB986E880BD10BC83E389B97894E9
:100830000895F4DFF5DF0895FC0105C05D9BFECF50
:1008400081918CB961506623C9F70895DF93CF93E6
:10085000CDB7DEB728970FB6F894DEBF0FBECDBF79
:10086000FE01319667E021E030E090E0A901062E1C
:1008700002C0440F551F0A94E2F748235923141667
:10088000150614F441E301C040E34193662311F0DF
:100890006150ECCFCE01019668E0CEDF28960FB60E
:1008A000F894DEBF0FBECDBFCF91DF910895282F02
:1008B000392FF90103C05D9BFECF8CB9819186175A
:1008C000D1F708951F920F920FB60F9211248F93B4
:1008D0009F93EF93FF938BB19CB18091EF00803891
:1008E00051F08091EF00E82FF0E0E35FFD4F90833F
:1008F0008F5F8093EF00FF91EF919F918F910F9009
:100900000FBE0F901F9018952091EF002223E9F061
:10091000F89467FD60E82091EF00621710F0609195
:10092000EF00462F0BC04150242F30E0F901E35F68
:10093000FD4F5081280F391FF9015083442399F747
:100940001092EF007894862F089580E008958091AA
:10095000F0008130C1F0813030F08230D1F084304D
:1009600009F052C03AC081E032DC83E030DC80E044
:100970002EDC82E02CDC80E060E070E04EE150E0B4
:10098000B9DE81E027C080E0C6DE8130E9F582E093
:1009900021C080E09EDB8130C1F44CDC80E060E06F
:1009A000E5DC81E004DC83E002DC8FEF92E5A7E088
:1009B00081509040A040E1F700C0000081E007DCDA
:1009C00083E005DC1092F000089580E0D5DC8130F2
:1009D000D9F484E08093F000089580E0E8DB82E0C1
:1009E000E6DB8FEF92E5A7E081509040A040E1F771
:1009F00000C0000080E0EBDB82E0E9DB80E060E04B
:100A0000B5DC82E08093F0000895B9D05BD183E03B
:100A100030D238D108958091F100882319F08130C7
:100A200091F40AC083E060E070E045E050E062DEEF
:100A300081E08093F10007C083E06DDE813029F40E
:100A40001092F100089580E0089580E00895DF930A
:100A5000CF9300D000D000D0CDB7DEB7DE01119625
:100A6000E8E6F0E083E001900D928150E1F7DE01CD
:100A70001496ECE6F0E083E001900D928150E1F7EE
:100A80008091F2008230D1F0833030F4882351F02D
:100A9000813009F06BC00CC08330D9F1843009F08B
:100AA00065C030C082E068DC813009F05FC02EC0D4
:100AB00082E062DC882309F059C027C083EF90E010
:100AC00060E404D28823A1F09091F3008C81981700
:100AD00009F04CC09091F4008D81981709F046C040
:100AE0009091F5008E81981709F040C083E00EC008
:100AF000C9D080EBBE016F5F7F4F43E0C2D1B1D060
:100B000084E004C088DF813089F582E08093F200C0
:100B10002DC0B8D080E0EEDBFC018FE38093F300C2
:100B200084AD8093F40040E00EC09C012D503F4FF7
:100B3000DC01AA0FBB1FAE0FBF1F8C91D90112960B
:100B40008C9312974F5F24AD842F90E0421768F387
:100B50008D509F4F2FE3DC0112962C9344AD4D5FD7
:100B600080EB63EF70E08DD11092F20026960FB605
:100B7000F894DEBF0FBECDBFCF91DF91089518BAB4
:100B80008EE387BB80E58DB91EB81EB808958FB976
:100B9000779BFECF8FB10895DF93CF930F92CDB7A0
:100BA000DEB7C2986983F3DF80938D026981862F57
:100BB000EEDFC29A0F90CF91DF910895C298E7DFE0
:100BC00080938D0280E0E3DFC29A0895EF92FF9256
:100BD0000F931F93DF93CF930F92CDB7DEB7162FEE
:100BE000042FC2987983D3DF7981412F572F7A015F
:100BF00005C080E0CCDFF70181937F018E2D811B42
:100C00008017B8F3C29A0F90CF91DF911F910F9187
:100C1000FF90EF900895EF92FF920F931F93DF9351
:100C2000CF930F92CDB7DEB7162F042FC2987983DA
:100C3000AEDF80938D027981412F572F7A0104C056
:100C4000F70181917F01A3DF8E2D811B8017C0F3F7
:100C5000C29A0F90CF91DF911F910F91FF90EF906B
:100C6000089582EE60E098DF87E0A8DF682F87E2D2
:100C700093DFC19880E0A2DF682F616080E28CDFA3
:100C8000C19A089581EE60E087DFC19880E096DF29
:100C9000682F6E7F80E280DFC19A08951F93182F1E
:100CA00087E08CDF87FF03C0112319F005C01123F3
:100CB00019F080E563E570DF1F910895682F85E2E4
:100CC0006BDF0895CF92DF92EF92FF920F931F9305
:100CD000DF93CF93CDB7DEB72D970FB6F894DEBF75
:100CE0000FBECDBF8FEF91EEA4E081509040A040A9
:100CF000E1F700C0000080E0D1DF03EB10E0D80195
:100D00008C91806211966C9147DF0E5F1F4FB0E0AF
:100D10000B3D1B07A1F734E3C32EC98223E4D22E77
:100D2000DA8290E1E92EEB82EC82FF24F394FD82DB
:100D30008AE28E010F5F1F4FB80145E06CDF89E347
:100D4000898388E38A8387E38B8386E38C8382ECC1
:100D50008D838BE2B80145E05EDFC982DA82EB82E7
:100D6000EC82FD8280E3B80145E055DF8DE126DFAE
:100D7000882319F480E563E70FDF8DE367E00CDF7C
:100D80008CE36FE309DF81E089DF00E710E090E0AA
:100D90007E010894E11CF11CF801219131914191EF
:100DA00051918F0129833A834B835C83892F806221
:100DB000B70144E09D872FDF9D859F5F993061F7E4
:100DC00084E9E82E80E0F82E8E010F5F1F4FD701D7
:100DD0002D913D914D915D917D0159834A833B83D6
:100DE0002C83892F8062B80144E09D8714DF9D85A4
:100DF0009F5F9E3061F7E8EAF0E0D80181918D9322
:100E000080E0E33BF807D1F78EE28E010F5F1F4FC2
:100E1000B8014BE000DF86E98A8382E88B838BE1AF
:100E20008C838FED898384E2B80144E0F4DE89810C
:100E3000897F898384E2B80144E0EDDE8FE798E39F
:100E4000A1E081509040A040E1F700C0000080E0A8
:100E500025DF07DF2D960FB6F894DEBF0FBECDBF9E
:100E6000CF91DF911F910F91FF90EF90DF90CF9086
:100E70000895682F660F696F677286E28DDEF1DE76
:100E80000895EF92FF921F93DF93CF930F92CDB708
:100E9000DEB7182F7B014983F5DE87E18FDE4981BC
:100EA00085FD0CC0812FB701B6DE8FEF90E7A2E081
:100EB00081509040A040E1F700C0000080E00F901A
:100EC000CF91DF911F91FF90EF9008950F931F93A3
:100ED000CF93DF93EC0187E071DE082F86FF12C00D
:100EE00080E66CDE182F813228F481E6BE01412FA6
:100EF0006DDE03C082EE60E04FDE87E15FDE80FFE3
:100F0000EFCF01C010E087E2602F46DE812FDF9136
:100F1000CF911F910F910895DC01CB01FC01E19964
:100F2000FECF06C0FFBBEEBBE09A31960DB20D922C
:100F300041505040B8F70895DC01CB0102C02D911B
:100F400005D041505040D8F70895262FE199FECFA3
:100F50009FBB8EBB2DBB0FB6F894E29AE19A0FBEF1
:080F600001960895F894FFCFFB
:100F680005040304070614032A2A2A002B2B2B0046
:100F7800404B01E2C04B0000D0FC8C029900394183
:100F8800D996821B24027FA6000000000000000002
:100F98000000000000000000000000000000000049
:100FA800007312000080B446412008048120CFF766
:100FB800FEFFFF000F013F023F0303040005330655
:100FC800270707080009000CC30DC40EC50FC6117A
:100FD800201220132014201520162017001C3F1D56
:0C0FE80007344310100139383736C200BE
:00000001FF
