:020000040800F2
:100000001006002089030008F9030008F90300081E
:10001000F9030008F9030008F903000800000000D4
:10002000000000000000000000000000F9030008CC
:10003000F903000800000000F9030008F9030008B4
:10004000F9030008F9030008F9030008F9030008A0
:10005000F9030008F9030008F9030008F903000890
:10006000F9030008F9030008F9030008F903000880
:10007000F9030008F9030008F9030008F903000870
:10008000F9030008F9030008F90300080000000064
:10009000000000000000000000000000F90300085C
:1000A000F9030008F9030008F9030008F903000840
:1000B000F9030008F9030008F9030008F903000830
:1000C000F9030008F9030008F9030008F903000820
:1000D000F9030008D1120008F9030008F903000829
:1000E000F9030008F9030008F90300080000000004
:1000F0000000000000000000000000000000000000
:1001000000000000000000000000000000000000EF
:10011000000000000000000065120008F90300085C
:100120005FF808F180B485B000AF786039604FF0B7
:100130000003FB817B681B88FB817A684FF4305396
:10014000C4F201039A421FD07A684FF45053C4F2AC
:1001500001039A4218D07B68B3F1804F14D07A68BB
:100160004FF48063C4F200039A420DD07A684FF4D2
:100170000063C4F200039A4206D07A684FF44063E9
:10018000C4F200039A4208D1FB8923F07003FB817B
:100190003B685A88FB891343FB817A684FF480538C
:1001A000C4F200039A420FD07A684FF4A053C4F20D
:1001B00000039A4208D0FB8923F44073FB813B681B
:1001C000DA88FB891343FB817B68FA891A803B68D4
:1001D0009A887B689A853B681A887B681A857A6852
:1001E0004FF43053C4F201039A421BD07A684FF4A3
:1001F0005053C4F201039A4214D07A684FF48043FA
:10020000C4F201039A420DD07A684FF48843C4F2D5
:1002100001039A4206D07A684FF49043C4F2010376
:100220009A4204D13B681B7A1A467B681A867B681F
:100230004FF001029A8207F11407BD4680BC704757
:1002400080B483B000AF78607B684FF6FF729A800D
:100250007B684FF000021A807B684FF00002DA8062
:100260007B684FF000025A807B684FF000021A72E0
:1002700007F10C07BD4680BC704700BF80B483B057
:1002800000AF78600B46FB70FB78002B08D07B68D2
:100290001B889BB243F001039AB27B681A8007E087
:1002A0007B681B889BB223F001039AB27B681A809B
:1002B00007F10C07BD4680BC704700BF80B483B017
:1002C00000AF786013460A467A807B707B78002BFB
:1002D00008D07B689B899AB27B8813439AB27B686B
:1002E0009A810AE07B689B899AB27B886FEA030354
:1002F0009BB213409AB27B689A8107F10C07BD4606
:1003000080BC704780B485B000AF78600B467B80BE
:100310004FF00003FB734FF00003BB814FF000036D
:100320007B817B681B8A9AB27B881340BB817B6888
:100330009B899AB27B8813407B81BB89002B06D0B6
:100340007B89002B03D04FF00103FB7302E04FF0D9
:100350000003FB73FB7B184607F11407BD4680BC06
:10036000704700BF80B483B000AF78600B467B80DD
:100370007B886FEA03039AB27B681A8207F10C0745
:10038000BD4680BC704700BF80B582B000AF41F66B
:100390005053C0F600037B6040F20003C2F200033A
:1003A0003B600BE07B681A683B681A603B6803F1AE
:1003B00004033B607B6803F104037B603A6840F20E
:1003C0001803C2F200039A42ECD3094809494FF0DE
:1003D00000028842B8BF40F8042BFFF6FAAF00F0E5
:1003E0000FF800F057FF07F10807BD4680BD000079
:1003F000180000200C02002080B400AFFEE700BF10
:1004000080B500AF4FF48053C4F202034FF4805222
:10041000C4F20202126842F001021A604FF48052E4
:10042000C4F202024FF48053C4F2020359684FF041
:100430000003CFF6FF030B4053604FF48053C4F228
:1004400002034FF48052C4F20202126822F0847256
:1004500022F480321A604FF48053C4F202034FF446
:100460008052C4F20202126822F480221A604FF411
:100470008053C4F202034FF48052C4F20202526865
:1004800022F4FE025A604FF48053C4F202034FF488
:100490001F029A604FF48053C4F202034FF000022F
:1004A000DA6200F009F84FF46D43CEF200034FF02A
:1004B00000629A6080BD00BF80B500AF00F002F816
:1004C00080BD00BF80B483B000AF4FF000037B60FD
:1004D0004FF000033B604FF48053C4F202034FF42B
:1004E0008052C4F20202126842F480321A604FF461
:1004F0008053C4F202031B6803F400333B607B6843
:1005000003F101037B603B68002B03D17B68B3F5EB
:10051000A06FECD14FF48053C4F202031B6803F4C4
:100520000033002B03D04FF001033B6002E04FF09B
:1005300000033B603B68012B6DD14FF48053C4F244
:1005400002034FF48052C4F2020252685A604FF420
:100550008053C4F202034FF48052C4F20202526884
:100560005A604FF48053C4F202034FF48052C4F235
:10057000020252685A604FF48053C4F202034FF4EF
:100580008052C4F20202526822F47C125A604FF484
:100590008053C4F202034FF48052C4F20202526844
:1005A00042F498125A604FF48053C4F202034FF49D
:1005B0008052C4F20202126842F080721A6000BFD8
:1005C0004FF48053C4F202031B6803F00073002B46
:1005D000F6D04FF48053C4F202034FF48052C4F2B9
:1005E0000202526822F003025A604FF48053C4F2B0
:1005F00002034FF48052C4F20202526842F0020237
:100600005A6000BF4FF48053C4F202035B6803F0EA
:100610000C03082BF6D107F10C07BD4680BC7047D0
:1006200080B483B000AF4FF00003BB712EE0B97906
:1006300040F26002C2F200020B464FEA43135B1A1B
:100640004FEA8303D31803F178034FF000021A70C6
:100650004FF00003FB7112E0B979F87940F26002C3
:10066000C2F200020B464FEA43135B1A1B184FF00D
:10067000000142F82310FB7903F10103FB71FB79C0
:100680001D2BE9D9BB7903F10103BB71BB79022BA7
:10069000CDD94FF00003FB710BE0FA7940F2D4138F
:1006A000C2F200034FF000019954FB7903F10103FA
:1006B000FB71FB79042BF0D907F10C07BD4680BC18
:1006C000704700BF80B500AFFFF7AAFF40F260009F
:1006D000C2F2000000F0C0F980BD00BFB0B500AFAD
:1006E00040F25E03C2F200031B78072B00F2288160
:1006F00001A252F823F000BF1907000859070008AB
:10070000750700081D080008AF08000891080008D8
:10071000CD0800080D09000840F2D413C2F200030E
:100720001B78002B00F00E814FF002004FF000010B
:100730004FF47A7200F0E0FB4FF000004FF0000140
:100740004FF6FF7200F0D8FB40F25E03C2F20003E6
:100750004FF001021A70FAE000F0FAF80346012B9C
:1007600040F0F28040F25E03C2F200034FF0030259
:100770001A70E9E04FF0020000F0FAFB0346012B8B
:1007800016D140F2D413C2F200039B78012B07D19B
:1007900040F25E03C2F200034FF007021A70D6E087
:1007A00040F25E03C2F200034FF004021A70CEE082
:1007B00040F2D413C2F200031B78002B00F0C68075
:1007C00040F26003C2F2000393F8F44025464FF074
:1007D000000000F013FC0346194640F26003C2F229
:1007E000000305F11F0243F8221004F10103DAB2FD
:1007F00040F26003C2F2000383F8F4204FF00000DF
:100800004FF000014FF6FF7200F076FB40F25E03FE
:10081000C2F200034FF001021A7098E040F2D413C4
:10082000C2F200039B78012B07D140F25E03C2F2B3
:1008300000034FF002021A7089E040F26003C2F236
:10084000000393F8F42040F26003C2F2000393F82F
:1008500078309A4214D100F0B7F80346012B07D143
:1008600040F25E03C2F200034FF005021A706EE020
:1008700040F25E03C2F200034FF004021A7066E019
:1008800040F25E03C2F200034FF002021A705EE013
:1008900040F2D413C2F200034FF001025A7040F24A
:1008A0005E03C2F200034FF006021A704FE040F2FE
:1008B000D413C2F200034FF000025A7040F25E03FC
:1008C000C2F200034FF006021A7040E04FF002003F
:1008D0004FF6FF714FF6FF7200F00EFB4FF0000075
:1008E0004FF6FF714FF6FF7200F006FB40F2600317
:1008F000C2F200034FF0000283F8F42040F25E03DE
:10090000C2F200034FF000021A7020E040F26002D1
:10091000C2F2000240F26003C2F20003114603F18A
:100920007C024FF07C03084611461A4601F056F946
:1009300040F25E03C2F200034FF006021A7006E0B6
:1009400000BF04E000BF02E000BF00E000BFB0BD98
:1009500080B500AF40F25D03C2F200031B78002BAC
:1009600002D0012B10D027E04FF001004FF0000122
:100970004FF0050200F0C0FA40F25D03C2F200033E
:100980004FF001021A7018E04FF0010000F0F0FA89
:100990000346012B14D140F2D413C2F200034FF0EE
:1009A00000021A7040F25D03C2F200034FF0000231
:1009B0001A704FF0010302E000BF4FF0000300E0A7
:1009C00000BF184680BD00BF80B483B000AF4FF0B9
:1009D0000003FB712FE0FA7940F26003C2F20003DA
:1009E00002F11F0253F82220F97940F26003C2F2AB
:1009F000000353F8213003F105039A4218DAFA791B
:100A000040F26003C2F2000302F11F0253F82220F9
:100A1000F97940F26003C2F2000353F82130A3F1E8
:100A200005039A4204DDFB7903F10103FB7102E047
:100A30004FF000030AE040F26003C2F2000393F8B3
:100A4000F430FA799A42C6D34FF00103184607F101
:100A50000C07BD4680BC704780B582B000AF78609F
:100A60007B6803F1780318464FF001014FF00C0248
:100A700000F036F97A687B6893F878304FEA4303E0
:100A8000DBB2104619464FF00D0200F029F907F1CC
:100A90000807BD4680BD00BF80B500AF40F25C03D3
:100AA000C2F200031B78002B02D0012B0FD01DE0F7
:100AB0004FF0000001F07AF80346002B18D040F206
:100AC0005C03C2F200034FF001021A7010E040F222
:100AD000D413C2F200039B78002B0BD140F25C03CD
:100AE000C2F200034FF000021A7003E000BF02E000
:100AF00000BF00E000BF80BD80B584B000AF40F211
:100B00001903C2F200031B78042B00F2A48001A297
:100B100052F823F0290B0008490B0008690B000864
:100B2000D10B0008B70B000840F2D413C2F2000347
:100B30009B78012B40F0918040F21903C2F2000330
:100B40004FF001021A7088E040F2D413C2F20003A1
:100B50009B78002B40F0838040F21903C2F200031F
:100B60004FF002021A707AE04FF00003BB60BB68DE
:100B7000002B0EDD40F21C03C2F200035B78DB2B7E
:100B800007D140F21903C2F200034FF003021A70BA
:100B900068E041F63853C0F6000307F104021988F3
:100BA0009B781180937040F21903C2F200034FF05A
:100BB00004021A7056E000F059F80346012B50D198
:100BC00040F21903C2F200034FF002021A7048E02B
:100BD00040F21C03C2F200034FF02A021A7040F2E6
:100BE0001C03C2F200034FF0DB025A7040F26003B4
:100BF000C2F2000393F8F42040F21C03C2F2000397
:100C00009A704FF00003FB7315E0FB7B03F10302C6
:100C1000F97B40F26003C2F2000301F11F0153F8B7
:100C20002130D9B240F21C03C2F200039954FB7B7D
:100C300003F10103FB7340F26003C2F2000393F877
:100C4000F430002BE1D140F21903C2F200034FF05F
:100C500000021A7006E000BF04E000BF02E000BF1F
:100C600000E000BF07F11007BD4680BD80B500AFB2
:100C700040F21803C2F200031B78002B02D0012BB4
:100C800010D020E04FF003004FF000014FF00502BC
:100C900000F032F940F21803C2F200034FF00102F3
:100CA0001A7011E04FF0030000F062F90346012BC7
:100CB0000DD140F21803C2F200034FF000021A7087
:100CC0004FF0010302E000BF4FF0000300E000BF5F
:100CD000184680BD80B400AFBD4680BC704700BFE1
:100CE00080B487B000AFF8600B467A60FB724FF0BB
:100CF0000003FB7503E0FB7D03F10103FB75FA7D47
:100D0000FB7A9A42F7D307F11C07BD4680BC7047B7
:100D100080B489B000AF786039604FF00003FB61A8
:100D20004FF000033B614FF00003BB614FF0000345
:100D3000FB604FF000037B614FF00003BB603B683A
:100D4000DB7803F00F03FB613B68DB7803F01003F3
:100D5000002B04D03B689B78FA691343FB613B6826
:100D60001B88DBB2002B4ED07B681B687B614FF089
:100D70000003BB6141E0BB694FF0010202FA03F3DB
:100D8000FB603B681B881A46FB6813403B613A696D
:100D9000FB689A422DD1BB694FEA8303FB60FB6875
:100DA0004FF00F0202FA03F3BB60BB686FEA030364
:100DB0007A6913407B61FB68FA6902FA03F37A6986
:100DC00013437B613B68DB78282B07D1BB694FF06D
:100DD000010202FA03F27B685A610AE03B68DB78A1
:100DE000482B06D1BB694FF0010202FA03F27B687F
:100DF0001A61BB6903F10103BB61BB69072BBAD957
:100E00007B687A691A603B681B88FF2B53D97B6823
:100E10005B687B614FF00003BB6146E0BB6903F197
:100E200008034FF0010202FA03F3FB603B681B88E2
:100E30001A46FB6813403B613A69FB689A4230D11D
:100E4000BB694FEA8303FB60FB684FF00F0202FAB5
:100E500003F3BB60BB686FEA03037A6913407B61ED
:100E6000FB68FA6902FA03F37A6913437B613B6812
:100E7000DB78282B08D1BB6903F108034FF001028E
:100E800002FA03F27B685A613B68DB78482B08D191
:100E9000BB6903F108034FF0010202FA03F27B6819
:100EA0001A61BB6903F10103BB61BB69072BB5D9AB
:100EB0007B687A695A6007F12407BD4680BC704799
:100EC00080B483B000AF0346FB714FF46143CEF2B0
:100ED000000397F907204FEA5212F97901F01F0138
:100EE0004FF0010000FA01F143F8221007F10C075E
:100EF000BD4680BC704700BF80B485B000AF0346DC
:100F0000B9607A60FB73F97B40F2DC12C2F2000236
:100F10000B464FEA43035B184FEA8303D318BA68C2
:100F20001A60F97B40F2DC12C2F200020B464FEA73
:100F300043035B184FEA8303D31803F104037A6871
:100F40001A60F97B40F2DC12C2F200020B464FEA53
:100F500043035B184FEA8303D31803F108034FF0F0
:100F600001021A7007F11407BD4680BC704700BF2C
:100F700080B483B000AF0346FB71F97940F2DC1214
:100F8000C2F200020B464FEA43035B184FEA8303A9
:100F9000D31803F108031B7803F00203002B24DDB0
:100FA000F979F87940F2DC12C2F2000203464FEA06
:100FB00043031B184FEA8303D31803F108031B787C
:100FC00023F00203D8B240F2DC12C2F200020B4658
:100FD0004FEA43035B184FEA8303D31803F1080376
:100FE00002461A704FF0010301E04FF0000318466B
:100FF00007F10C07BD4680BC704700BF80B483B0CA
:1010000000AF0346FB71F97940F2DC12C2F2000234
:101010000B464FEA43035B184FEA8303D3181B6860
:10102000184607F10C07BD4680BC704780B582B0FA
:1010300000AF4FF00003FB7134E0F97940F2DC12AD
:10104000C2F200020B464FEA43035B184FEA8303E8
:10105000D3184FF000021A60F97940F2DC12C2F2A4
:1010600000020B464FEA43035B184FEA8303D31891
:1010700003F104034FF000021A60F97940F2DC1228
:10108000C2F200020B464FEA43035B184FEA8303A8
:10109000D31803F108034FF000021A70FB7903F133
:1010A0000103FB71FB79032BC7D900F0A3F807F10B
:1010B0000807BD4680BD00BF90B482B000AF4FF0BE
:1010C0000003FB718BE0F97940F2DC12C2F20002FE
:1010D0000B464FEA43035B184FEA8303D31803F12F
:1010E00008031B7803F00103002B74DDFA79134623
:1010F0004FEA43039B184FEA830340F2DC11C2F22C
:1011000000015C1840F2DC11C2F2000113464FEA04
:1011100043039B184FEA8303CB181968F87940F210
:10112000DC12C2F2000203464FEA43031B184FEAE7
:101130008303D31803F104031B68994234BF0023CF
:101140000123DBB201F101022260002B43D0F979C7
:10115000F87940F2DC12C2F2000203464FEA430380
:101160001B184FEA8303D31803F108031B7823F0FD
:101170000103D8B240F2DC12C2F200020B464FEA81
:1011800043035B184FEA8303D31803F108030246B5
:101190001A70F979F87940F2DC12C2F200020346C3
:1011A0004FEA43031B184FEA8303D31803F10803E4
:1011B0001B7843F00203D8B240F2DC12C2F2000204
:1011C0000B464FEA43035B184FEA8303D31803F13E
:1011D000080302461A70FB7903F10103FB71FB79E6
:1011E000032B7FF670AF184607F10807BD4690BC89
:1011F000704700BF80B584B000AF4FF010004FF0D3
:10120000010100F04BFA07F104031846FFF718F844
:1012100045F6BF53BB804FF4FA733B8107F10403DB
:101220004FF48050C4F200001946FEF77BFF4FF4E4
:101230008050C4F200004FF001014FF00102FFF7AF
:101240003DF84FF48050C4F200004FF00101FFF769
:1012500015F84FF03600FFF733FE07F11007BD46D3
:1012600080BD00BF80B500AF4FF48050C4F20000D5
:101270004FF00101FFF746F80346002B09D04FF469
:101280008050C4F200004FF00101FFF76BF8FFF748
:1012900013FF80BD80B500AFFFF71CFD00F080FCA0
:1012A00000F0B4FBFFF7C2FE00F0B4F841F63C508A
:1012B000C0F600004FF02A0100F0B2F8FFF702FA82
:1012C000FFF7EAFBFFF70AFAFFF716FCF8E700BFA3
:1012D00080B582B000AF4FF46053C4F201031B88A5
:1012E0009BB203F02003002B0BD04FF46050C4F2EC
:1012F000010000F059FB0346FB71FB7903F1010388
:10130000FB7107F10807BD4680BD00BF80B500AF87
:1013100044F204004FF0010100F096F900F062F889
:1013200000F00EF800F034F84FF46050C4F2010001
:1013300040F225514FF0010200F0D0FA80BD00BF0D
:1013400080B582B000AF4FF40073BB804FF018033C
:10135000FB714FF00303BB7107F104034FF400600E
:10136000C4F201001946FFF7D3FC4FF48063BB8041
:101370004FF00403FB7107F104034FF40060C4F263
:1013800001001946FFF7C4FC07F10807BD4680BD00
:1013900080B584B000AF4FF416533B604FF00003AC
:1013A000BB804FF00003FB804FF000033B814FF008
:1013B0000003BB814FF00C037B813B464FF4605030
:1013C000C4F20100194600F093F94FF46050C4F2E2
:1013D00001004FF0010100F061FA07F11007BD466E
:1013E00080BD00BF80B582B000AF4FF025033B71D8
:1013F0004FF000037B714FF00003BB714FF001030E
:10140000FB7107F10403184600F03AFB07F10807E7
:10141000BD4680BD80B500AFFFF778FF80BD00BF3F
:1014200080B582B000AF78600B46FB7014E07B683B
:101430001B784FF46050C4F20100194600F0A0FA86
:1014400000BF4FF46050C4F201004FF0400100F0C3
:10145000BDFA0346002BF4D07B681B78FA789A42D9
:101460000CBF00230123DBB27A6802F101027A602B
:10147000002BDCD107F10807BD4680BD80B489B0E0
:1014800000AF78604FF00003FB614FF00003BB61D9
:101490004FF000037B614FF000033B614FF000030E
:1014A000FB604FF48053C4F202035B6803F00C034B
:1014B000FB61FB69042B0AD0082B0FD0002B47D10E
:1014C0007A684FF49053C0F27A03136047E07A6869
:1014D0004FF49053C0F27A03136040E04FF480530E
:1014E000C4F202035B6803F47013BB614FF48053D2
:1014F000C4F202035B6803F480337B61BB694FEA8B
:10150000934303F10203BB617B69002B09D1BA69E4
:101510004FF41063C0F23D0303FB02F27B681A60D4
:101520001DE04FF48053C4F20203DB6A03F00F03A3
:1015300003F10103FB604FF49053C0F27A03FA68A1
:10154000B3FBF2F3BA6902FB03F27B681A6006E0B0
:101550007A684FF49053C0F27A03136000BF4FF4DF
:101560008053C4F202035B6803F0F003FB61FB6984
:101570004FEA1313FB6140F20003C2F20003FA6961
:101580009B181B78DBB23B617B681A683B6922FAC7
:1015900003F27B685A604FF48053C4F202035B6825
:1015A00003F4E063FB61FB694FEA1323FB6140F244
:1015B0000003C2F20003FA699B181B78DBB23B619F
:1015C0007B685A683B6922FA03F27B689A604FF4A1
:1015D0008053C4F202035B6803F46053FB61FB6950
:1015E0004FEAD323FB6140F20003C2F20003FA6921
:1015F0009B181B78DBB23B617B685A683B6922FA17
:1016000003F27B68DA604FF48053C4F202035B6834
:1016100003F44043FB61FB694FEA9333FB6140F203
:101620001003C2F20003FA699B181B78DBB23B611E
:101630007B68DA683B69B2FBF3F27B681A6107F1F9
:101640002407BD4680BC704780B483B000AF78608B
:101650000B46FB70FB78002B0CD04FF48053C4F288
:1016600002034FF48052C4F2020291697A680A437D
:101670009A610DE04FF48053C4F202034FF480529C
:10168000C4F2020291697A686FEA02020A409A6122
:1016900007F10C07BD4680BC704700BF80B483B023
:1016A00000AF78600B46FB70FB78002B0CD04FF43A
:1016B0008053C4F202034FF48052C4F20202D16993
:1016C0007A680A43DA610DE04FF48053C4F20203F2
:1016D0004FF48052C4F20202D1697A686FEA0202C2
:1016E0000A40DA6107F10C07BD4680BC704700BFB5
:1016F00080B58CB000AF786039604FF00003FB62BA
:101700004FF00003BB624FF000037B624FF0000319
:101710003B624FF00003FB617B68FB617B681B8AC7
:101720009BB2FB62FA6A4CF6FF731340FB623B68A4
:10173000DB88FA6A1343FB62FB6A9AB27B681A82FF
:101740007B689B899BB2FB62FA6A4EF6F3131340E7
:10175000FB623B689A883B681B8913439AB23B68DB
:101760005B8913439BB2FA6A1343FB62FB6A9AB22A
:101770007B689A817B689B8A9BB2FB62FA6A4FF610
:10178000FF431340FB623B689B89FA6A1343FB6289
:10179000FB6A9AB27B689A8207F108031846FFF742
:1017A0006DFEFA694FF46053C4F201039A4202D10C
:1017B0007B69BB6201E03B69BB627B689B899BB232
:1017C0009BB21BB2002B0FDABA6A13464FEA8303AF
:1017D0009B184FEA83029A183B681B684FEA430341
:1017E000B2FBF3F37B620EE0BA6A13464FEA83035F
:1017F0009B184FEA83029A183B681B684FEA8303E1
:10180000B2FBF3F37B627A6A48F21F53C5F2EB1323
:10181000A3FB02134FEA53134FEA0313FB62FB6A65
:101820004FEA13134FF0640202FB03F37A6AD31AF0
:101830003B627B689B899BB29BB21BB2002B12DA86
:101840003B6A4FEAC30303F1320248F21F53C5F269
:10185000EB13A3FB02134FEA531303F00703FA6AD7
:101860001343FB6211E03B6A4FEA031303F13202B8
:1018700048F21F53C5F2EB13A3FB02134FEA5313B5
:1018800003F00F03FA6A1343FB62FB6A9AB27B68A8
:101890001A8107F13007BD4680BD00BF80B483B018
:1018A00000AF78600B46FB70FB78002B08D07B689C
:1018B0009B899BB243F400539AB27B689A8107E0FC
:1018C0007B689B899BB223F400539AB27B689A8110
:1018D00007F10C07BD4680BC704700BF80B487B0DD
:1018E00000AF786013460A467A807B704FF00003A1
:1018F0003B614FF00003FB604FF00003BB604FF013
:1019000000037B617B687B617B88DBB24FEA53130A
:10191000DBB23B617B8803F01F03FB60FB684FF089
:10192000010202FA03F3BB603B69012B04D17B691E
:1019300003F10C037B610BE03B69022B04D17B6953
:1019400003F110037B6103E07B6903F114037B6106
:101950007B78002B06D07B697A691168BA680A43E4
:101960001A6007E07B697A691168BA686FEA020257
:101970000A401A6007F11C07BD4680BC704700BFD3
:1019800080B483B000AF78600B467B807B884FEAE1
:10199000C3534FEAD3539AB27B689A8007F10C077E
:1019A000BD4680BC704700BF80B483B000AF786094
:1019B0007B689B889BB24FEAC3534FEAD3539BB2D9
:1019C000184607F10C07BD4680BC704780B485B04F
:1019D00000AF78600B467B804FF00003FB737B68A1
:1019E0001B889AB27B8813409BB2002B03D04FF028
:1019F0000103FB7302E04FF00003FB73FB7B18460F
:101A000007F11407BD4680BC704700BF80B584B0A5
:101A100000AF4FF010004FF00101FFF715FE4FF03F
:101A20000003FB604FF00003FB7210E0FA7A40F213
:101A30001403C2F200039B5C4FF0010202FA03F3AD
:101A4000FA681343FB60FB7A03F10103FB72FB7A34
:101A5000012BEBD9FB689BB2BB804FF01003FB71ED
:101A60004FF00303BB7107F104034FF48050C4F23D
:101A700001001946FFF74CF907F11007BD4680BD7C
:101A800080B487B000AF78604FF000037B614FF007
:101A900000033B614FF00F03FB607B68DB78002B9A
:101AA00047D04FF46D43CEF20003DB686FEA0303C7
:101AB00003F4E0634FEA13237B617B69C3F1040302
:101AC0003B617B69FA6822FA03F3FB607B685B7811
:101AD0001A463B6902FA03F37B617B689B781A46DE
:101AE000FB6813407A6913437B617B694FEA0313F8
:101AF0007B614FF46143CEF200037A68127811469D
:101B00007A69D2B25B1883F800234FF46143CEF2B6
:101B100000037A6812784FEA5212D2B279680978D3
:101B200001F01F014FF0010000FA01F143F822100B
:101B300014E04FF46143CEF200037A6812784FEA62
:101B40005212D2B27968097801F01F014FF00100FA
:101B500000FA01F102F1200243F8221007F11C07FC
:101B6000BD4680BC704700BF80B582B000AF4FF06B
:101B700004004FF00101FFF767FD4FF00103BB8048
:101B80004FF02803FB7107F104034FF40060C4F227
:101B900001001946FFF7BCF807F10807BD4680BDF4
:101BA00080B500AFFFF7E0FF80BD00BF80B483B019
:101BB00000AF0346FB714FF40063C4F201039B685E
:101BC00003F00103002B0CBF00230123DBB21846F6
:101BD00007F10C07BD4680BC704700BF0F2A2DE9F6
:101BE000F00340F2A18041EA00039B0740F09E8091
:101BF0000C68A2F1100504604B68AC4643608C6829
:101C0000BCF10F0F8460CC68C5F30015C46000F10F
:101C1000100301F110042BD975B12568ACF1100C3B
:101C20001D6065685D60A5689D60E5681034DD60D5
:101C30001033BCF10F0F1BD9276804F110061F6089
:101C4000676803F110055F60A768ACF1200C9F6026
:101C5000E768DF6024691C61776806F110046F6033
:101C6000B7682033AF60F668BCF10F0FEE60E3D8C1
:101C7000A2F1100828F00F0302F00F0403F1100C7A
:101C8000032C00EB0C0301EB0C0851D9211F4FEA88
:101C90009109444608EB890C54F8046BC8EB0C011D
:101CA0000CF1040C1D46644545F8046BC1F380013A
:101CB00012D029B154F8041B644545F8041B0BD01D
:101CC000274657F8041B2E4646F8041B64686C60D0
:101CD0003C1D351D6445F3D109F1010C4FEA8C0917
:101CE00002F0030208EB09014B44D2B10D789A18B7
:101CF000DC4303F8015B1419934204F0010410D093
:101D00002CB111F8014F03F8014B934209D04D78E3
:101D10001C4604F8015B8D7802315D70631C9342B0
:101D2000F5D1BDE8F00370470346DEE70346DDE783
:101D300041462246D9E700BF2ADBDB0053746172BB
:101D400074696E672070726F6772616D202A00007F
:101D50000000000001020304010203040607080951
:081D6000020406080809000056
:0400000508000000EF
:00000001FF
